S01D00006275696C642F6171756973677261696E2F6D61696E2E73726563C0
S11300000C9479010C94CF2F0C94D92F0C94E32FDA
S11300100C94ED2F0C94F72F0C9427300C94313062
S11300200C943B300C9496010C9496010C94E22EA3
S11300300C94272E0C94CC2E0C94AE2F0C94F72BEE
S11300400C943B2C0C9445300C944C2C0C94960141
S11300500C94A62C0C9496010C9496010C94960185
S11300600C94D72E0C94F32D0C94D22D0C94DD2DDE
S11300700C94E82D0C94062E0C94B52D0C9496013A
S11300800C94C72D0C9496010C9496018120EC20BD
S1130090172149219B213D221123162318231D23B7
S11300A04223E8230F241D240B25132536253D2543
S11300B04D255C2583258D26A226A526A826CD269A
S11300C0E126CD27BC280852573F9F5A49CBA56249
S11300D00F76C76913F27E6F500D0175360B617A86
S11300E02AAAAB7E0000007F0000000000081C1854
S11300F0141000002110422063308440A550C660D3
S1130100E770088129914AA16BB18CC1ADD1CEE1D0
S1130110EFF13112100273325222B5529442F77247
S1130120D662399318837BB35AA3BDD39CC3FFF320
S1130130DEE36224433420040114E664C774A44457
S113014085546AA54BB528850995EEE5CFF5ACC570
S11301508DD55336722611163006D776F666955627
S1130160B4465BB77AA719973887DFF7FEE79DD7C0
S1130170BCC7C448E5588668A778400861180228B7
S11301802338CCC9EDD98EE9AFF9488969990AA910
S11301902BB9F55AD44AB77A966A711A500A333A87
S11301A0122AFDDBDCCBBFFB9EEB799B588B3BBB60
S11301B01AABA66C877CE44CC55C222C033C600C17
S11301C0411CAEED8FFDECCDCDDD2AAD0BBD688DB0
S11301D0499D977EB66ED55EF44E133E322E511E67
S11301E0700E9FFFBEEFDDDFFCCF1BBF3AAF599F00
S11301F0788F8891A981CAB1EBA10CD12DC14EF1A0
S11302006FE18010A100C230E32004502540467005
S11302106760B9839893FBA3DAB33DC31CD37FE330
S11302205EF3B1029012F322D23235421452776255
S11302305672EAB5CBA5A89589856EF54FE52CD500
S11302400DC5E234C324A0148104667447642454A5
S11302500544DBA7FAB79987B8975FE77EF71DC710
S11302603CD7D326F2369106B016576676761546F5
S113027034564CD96DC90EF92FE9C899E9898AB960
S1130280ABA94458654806782768C018E108823845
S1130290A3287DCB5CDB3FEB1EFBF98BD89BBBAB70
S11302A09ABB754A545A376A167AF10AD01AB32A95
S11302B0923A2EFD0FED6CDD4DCDAABD8BADE89DC0
S11302C0C98D267C076C645C454CA23C832CE01CE5
S11302D0C10C1FEF3EFF5DCF7CDF9BAFBABFD98F50
S11302E0F89F176E367E554E745E932EB23ED10E35
S11302F0F01E11241FBECFEFD0E1DEBFCDBF11E051
S1130300A0E0B1E0E0E5FAE600E00BBF02C0079030
S11303100D92A831B107D9F717E0A8E1B1E001C007
S11303201D92A83EB107E1F70C9422290C94000019
S11303308FB7F894992708958FBF0895982F8FB792
S1130340F894282FE92FFF27E858F84F80818F3F32
S1130350B1F480919807891791F0809143078F3FFA
S113036019F49093430707C080919807E82FFF275B
S1130370E858F84F90839093980780E001C085E097
S11303802FBF9927089587E10E949E019927089518
S1130390AC0160E020E030E0E1E6F4E0858180FF3C
S11303A007C0808191818417950711F4C9010895CC
S11303B06F5F3E962F5F3F4F6A3080F38FEF90E080
S11303C008950E94C8018F3F19F481E090E00895D8
S11303D0282F33278EE090E0289FF001299FF00D0D
S11303E0389FF00D1124EF59FB4F85818860858378
S11303F080E090E008950E94C8018F3F19F48FEFC8
S113040090E00895282F33278EE090E0289FF00194
S1130410299FF00D389FF00D1124EF59FB4F828571
S1130420992708952F923F924F925F926F927F92F5
S11304308F929F92AF92BF92CF92DF92EF92FF92F0
S11304400F931F93CF93DF93CDB7DEB72A970FB6E1
S1130450F894DEBF0FBECDBF8FB7F894282F332793
S113046029873A872090EF043090F0044090F104FB
S11304705090F20466242EE4A22E93E8B92EC62CE2
S1130480D62CE62CF62C062D162D222D332D442D9C
S1130490552D662D762D862D962D0E94AF302983FD
S11304A03A834B835C836D837E838F839887822E0C
S11304B0932EA42EB52EC62ED72EE82EF92E240167
S11304C03501769467945794479400E2282D392D8A
S11304D04A2D5B2D6C2D7D2D8E2D9F2D0E94B931C3
S11304E0A22EB32EC42ED52EC601B501640D751DE2
S11304F0861D971D97FF05C09F776F5F7F4F8F4FB6
S11305009F4F6093EF047093F0048093F1049093F1
S1130510F20439853FBF2A960FB6F894DEBF0FBEAA
S1130520CDBFDF91CF911F910F91FF90EF90DF909E
S1130530CF90BF90AF909F908F907F906F905F907F
S11305404F903F902F900895662311F06150FCCF97
S113055008958FB7F894282F33278BB392E0892717
S11305608BBB2FBF0895FC01862F845F8083089581
S1130570FC016683872F992787830895FC0162878E
S11305800895FC01828599270895FC0187819927A4
S1130590382F222786819927822B932B0895DC01FB
S11305A0FB01672B19F08C918C508083CD010B9645
S11305B00895EF92FF920F931F93CF93DF938C01D3
S11305C0EB010E94CF027C0160E070E0C8010E9450
S11305D0CF02FC01209769F0808199278F70907079
S11305E09C01220F331F280F391F8881821B8250E0
S11305F08883C7010296DF91CF911F910F91FF90DD
S1130600EF90089560E070E00E94CF02089560E0EA
S113061070E00E94CF02FC0184819927382F2227A1
S113062085819927822B932B089560E070E00E94C6
S1130630CF02FC0186819927089560E070E00E9452
S1130640CF02FC0181819927089560E070E00E9447
S1130650CF02FC01878199270895EF92FF920F93AF
S11306601F93CF93DF937C0100E08091C9070817A3
S113067088F58091CE07800F912D911D9C018C7F70
S11306809370122F181BC7010E940703212F3327D1
S1130690E901CC0FDD1FCC0FDD1FC20FD31FC356E2
S11306A0DA4F288139818217930791F4C7010E9498
S11306B015039A81891761F4C7010E941D039C8167
S11306C0891731F4C7010E9425039B81891711F012
S11306D00F5FCBCF802F9927DF91CF911F910F917F
S11306E0FF90EF900895FC01892B39F0809155011A
S11306F0909156018F5F9F4F19F481E090E0089527
S113070080915701909158018083918380E090E01B
S11307100895FC0180818C5099270895EF920F93DE
S11307201F93AE2D99E0899FF0011124E25AFE4FE8
S113073040835183628373830483158326833783C1
S1130740A17080858E7F8A2B8260808783E00E94DF
S11307509E011F910F91EF900895AC012091CC0759
S11307608FEF4F3F580719F4822F9927089530E0EF
S1130770321758F4E3EFF4E08081918138968417BE
S1130780950719F03F5F3217B8F3832F992708951F
S113079080912401E82FFF27EE0FFF1FE35CFB4F3E
S11307A00190F081E02D20912201222349F08F5FF6
S11307B06DE00E947D349093240121502093220106
S11307C0CF010895CF93DF93EB010E94CF029C01E8
S11307D0209719F0888188508883C9010896DF9191
S11307E0CF910895FC0184819927382F2227858190
S11307F09927822B932B0895FC01828599270895CC
S1130800CF938FB7F894C82F80914C05882341F477
S113081085E00E949E01882319F481E080934C05B1
S1130820CFBFCF9108950F931F93CF93DA01C22FB7
S11308304C5F5F4FFA016183272F3327FD01248327
S11308408287FA01C483009142011091430101158A
S1130850110519F085E090E041C08FB7F894482F56
S1130860552724E030E02093400110923F01B093DB
S11308704501A093440182E090E09093430180936A
S1130880420110923D0110923E01C95F822F8C0FEC
S1130890809341014FBF90E08FB7F894282F3327FE
S11308A080919505882331F481E080939505909398
S11308B09605982F2FBF992321F00E940004C801A8
S11308C002C085E090E0882319F480E090E006C03F
S11308D0109243011092420181E090E09927CF9158
S11308E01F910F9108950F931F93CF938C01C62FDF
S11308F080910201882319F5C8010E94AD03E82FF5
S11309008091CC07E81748F4FF2783E0EE0FFF1F20
S11309108A95E1F7ED50FB4FC78380915A018823F4
S113092011F0CC2349F08091550190915601801724
S1130930910729F4CC2319F08AE10E949E01CF91FA
S11309401F910F910895FC0181859927382F222743
S113095080859927822B932B08951F93CF93DF9340
S1130960162FC0E0D0E0BE010E94CF02FC018081BE
S11309708123811711F4C1E0D0E0CE01DF91CF9142
S11309801F910895209149052C3018F081E090E0E2
S11309900895E0915D04E20FEC3008F0EC50FF277D
S11309A0EE0FFF1FEE54FA4F808391832F5F209345
S11309B0490580E090E0089520918D052C3018F0D1
S11309C081E090E00895E0913C04E20FEC3008F0FF
S11309D0EC50FF27EE0FFF1FEB58FA4F80839183F3
S11309E02F5F20938D0580E090E0089560E070E033
S11309F00E94CF02FC0184819927382F2227858108
S1130A009927822B932B089540E0909122018091A5
S1130A10A801891708F441E020E030E0442321F4E0
S1130A2080912A01882311F021E030E0C901089562
S1130A30FC0180818C509927089590E020E030E0FB
S1130A40E6E6F4E080813E9680FD02C0C901089587
S1130A509F5F2F5F3F4F9A30A8F38FEF90E0089588
S1130A609EE0899FF0011124EF59FB4F608371834D
S1130A7012821382148285E0858386E086838783CD
S1130A8010861186128613860895982F7FEF40E012
S1130A9050E060E0E1E6F4E08581282F332720FF71
S1130AA00BC021FF09C023FD07C02285338524170D
S1130AB0350710F0762FA9016F5F3E966A3060F318
S1130AC0892F99274817590718F0872F99270895D0
S1130AD08FEF90E008950895FC019B01220F331FCE
S1130AE0220F331F82859385820F931F880F991FCE
S1130AF06AE070E00E948934628773870895FC017C
S1130B0024856585222339F48AE0689FB001112485
S1130B106A5070400CC033278AE0689FC0011124DA
S1130B20B9010E949D346A50704014861586CF0125
S1130B300E946C0508950E94C801982F8F3F19F4F4
S1130B4081E090E008958EE0989FF0011124EF5920
S1130B50FB4F84858F5F848785858F5F858785308C
S1130B6018F0CF010E947F0580E090E00895EF9295
S1130B70FF921F93CF93DF93282F33278EE090E0CB
S1130B80289FF001299FF00D389FF00D1124EF5993
S1130B90FB4F858182FF03C062838B7F85838281C3
S1130BA0962F981B628383818F5F838386E086837D
S1130BB0992321F08481890F815084839B3030F004
S1130BC0148281E0838317821186108683818330A7
S1130BD008F47AC0E080F180C1E6D4E019E08881AD
S1130BE099818E159F0509F06BC02D8120FF68C087
S1130BF08E81882311F081508E838F81882311F098
S1130C0081508F838E81882349F49F81992331F405
S1130C1081E028272D839987988725C022602D831A
S1130C209B812C81290F233008F423E0488522235B
S1130C3019F4842F992710C033278FEF989FC00190
S1130C401124B9010E949D34CB019927880F991F63
S1130C50880F991F840F911D65E070E00E949D34F8
S1130C6068871B821C8228854985222309F1442335
S1130C70F9F0332781E09EEFB9010E948934CB015A
S1130C80E3E0880F991FEA95E1F7860F971F242F59
S1130C903327860F971FB9010E9489346A50704028
S1130CA06F3F710519F010F06CE370E0772702C014
S1130CB06CE370E0862F9927BC01CE010E946C057D
S1130CC011502E9617FF8BCFDF91CF911F91FF907C
S1130CD0EF9008951F93CF93DF93162FC0E0D0E0D9
S1130CE0BE010E94D902FC0180818123811711F485
S1130CF0C1E0D0E0CE01DF91CF911F910895882308
S1130D0011F06E9A08956E98089580912F018823AA
S1130D1019F480E090E0089581E090E00895482F70
S1130D208FB7F894282F332781E090E090932E0119
S1130D3080932D012FBF8FB7F894992740933501E5
S1130D408FBF8FE00E949E0108958FB7F894682F9B
S1130D50772780915804909159042CB53DB506B677
S1130D6002FE03C001962CB53DB5AA27BB27442734
S1130D705527DC0199278827822B932BA42BB52B8D
S1130D806FBFBC01CD0108950E941202DC01CB01AA
S1130D9066E371E00E9489340B9690934805809332
S1130DA047050895CF92DF92EF92FF920F931F931E
S1130DB0282F33278BE090E0289FF001299FF00D26
S1130DC0389FF00D1124EA54FE4F82819381A4814F
S1130DD0B5810097A105B10569F080819181880FE3
S1130DE0991F808391838150944020F080E094E0A7
S1130DF0808391838BE090E0289F6001299FD00C31
S1130E00389FD00C112486EB91E0C80ED91EF60150
S1130E1086819781A085B18582839383A483B583DA
S1130E20808191817C010027112789E0EE0CFF1C51
S1130E30001F111F8A95D1F70E941202DC01CB0119
S1130E40F60120813181322F2227330FB9010E940C
S1130E508934AA27BB27E80EF91E0A1F1B1F220F7D
S1130E60331FC901AA27BB278E199F09A00BB10BF9
S1130E7086839783A087B18782819381A481B5817A
S1130E808E0D9F1DA01FB11F82839383A483B583FE
S1130E901F910F91FF90EF90DF90CF9008950895E8
S1130EA080E88093C90110926F051092B1051092E9
S1130EB0CD070895DA98D998D898809166018D7FE6
S1130EC080936601089520E08FB7F894982F80915D
S1130ED030078A3029F480919C05843009F421E09C
S1130EE09FBF222351F087E00E949E018FB7F894A0
S1130EF09927109248018FBF08958FB7F894282F2F
S1130F00332781E0809348012FBF089581E00E9438
S1130F109E019927089580E00E949E0199270895D3
S1130F20CF93DF93CDB7DEB722970FB6F894DEBF29
S1130F300FBECDBFCE0101960E94730389819A81B1
S1130F408093A606892F99278093A5068091550141
S1130F50909156012FEF8F3F920711F089839A8366
S1130F6089819A818093A806892F99278093A7065F
S1130F7022960FB6F894DEBF0FBECDBFDF91CF919E
S1130F8008958FB7F894282F33278BB394E08927DB
S1130F908BBB2FBF0895CF93DF93EC01662311F031
S1130FA00E94C107C65FD64019F41092CA0502C058
S1130FB0109274071092A9060E94A902DF91CF91A2
S1130FC00895BF92CF92DF92EF92FF920F931F93F7
S1130FD0CF93DF936B01B42EC82FDD27FE01EC0FF6
S1130FE0FD1FEE54FE4F1082118210920D0120E07D
S1130FF08091B2019091B301892B19F08091380747
S113100080FD21E010920D01222319F081E08093EC
S11310100D0180910D018823D1F40091B20110914A
S1131020B301C8010E94FC03E82EFF24C8010E94FA
S1131030F203BC01F80180859927282FA8018E2D81
S11310400E941304882319F08CE00E949E01CD2B8A
S113105021F46B2DC6010E94CB07DF91CF911F9124
S11310600F91FF90EF90DF90CF90BF90089566238B
S113107011F00E94C107109277071092A9060E94EE
S1131080A9020895DF92EF92FF920F931F93CF93DB
S1131090DF93EB01D42EFB0134968183892F9927AA
S11310A08C8383E98A87E090B201F090B301E11464
S11310B0F10419F085E090E028C07093B3016093C7
S11310C0B201D48280910D018823F1F0CB010E94FA
S11310D0FC03082F1127CE010E94F20310920D0188
S11310E02D2DAE01BC01802F0E9413049927282FB7
S11310F0882339F081E080930D01F092B301E092EE
S1131100B201822F992701C0C7019927DF91CF919E
S11311101F910F91FF90EF90DF900895CF93DF938D
S1131120DC01FB01672B19F0EC0188858083CD017C
S11311300B96DF91CF910895EF92FF920F931F9337
S1131140CF937C018B01C42F4B3031F58091CA05BC
S1131150882311F560E070E086EF96E00E948E0827
S1131160DC01F8012C2F01900D922A95E1F74C2F08
S113117066EF76E08FEF9FEF0E944208882319F410
S113118081E08093CA058FB7F894282F33278BB357
S113119091E089278BBB2FBFC701CF911F910F917E
S11311A0FF90EF900895AC01209122012D30B0F40E
S11311B080912301E82FFF27EE0FFF1FE35CFB4F15
S11311C0408351838F5F6DE00E947D3490932301AF
S11311D02F5F2093220180E090E0089581E090E069
S11311E00895CF93DF93EC010E94AD03E82F809123
S11311F0CC07E817E9F081508093CC079E2FE817BD
S1131200B8F428E0E92FFF2753E0EE0FFF1F5A95AB
S1131210E1F7DF01A550BB4FED50FB4F822F0D903E
S113122001928A95E1F79F5F8091CC07981750F35C
S113123080915501909156018C179D07A1F48FEF71
S11312409FEF90935601809355011092580110928C
S113125057011092590110925A0181E080931C01A8
S11312608AE10E949E01DF91CF9108958FB7F8948F
S1131270982F82B720912F06309130064091310685
S11312805091320606B601FE0FC081B7280F311DFA
S1131290411D511D82B7280F311D411D511D2F5F66
S11312A03F4F4F4F5F4F04C0280F311D411D511D4B
S11312B09FBFCA01B90108950F931F93CF93DF9382
S11312C010E08FB7F894282F3327022F81B792B7F5
S11312D0891B8F5F823018F006B601FE02C02FBF53
S11312E06AC0809167068823B1F10E943609DC0147
S11312F0CB01C0919705D0919805E0919905F091A3
S11313009A058C1B9D0BAE0BBF0B20919A06309156
S11313109B0640919C0650919D0682179307A40753
S1131320B50720F01093670611E015C02C0F3D1F80
S11313304E1F5F1F80912F0690913006A0913106B9
S1131340B0913206281B390B4A0B5B0B273E310543
S11313504105510510F086EE05C0223010F482E0FC
S113136001C0822F682F615000B601FCFDCF82B707
S1131370861709F46F5F20912F0630913006409153
S1131380310650913206DA01C901860F911DA11D63
S1131390B11D0196A11DB11D82179307A407B507BE
S11313A018F460912F06609561BF0FBF112319F0E7
S11313B082E00E949E01DF91CF911F910F910895C9
S11313C0EF92FF920F931F937B018C018FB7F894D8
S11313D0682F772781E080936706E0929705F09263
S11313E098050093990510939A0520939A063093D3
S11313F09B0640939C0650939D066FBF0E945C0918
S11314001F910F91FF90EF900895AF92BF92CF92EA
S1131410DF92EF92FF920F931F93F82E5A016B0104
S11314200E943609DC01CB01EE2496018501AC0152
S1131430BD018F2D0E948E031F910F91FF90EF909D
S1131440DF90CF90BF90AF900895FC0180819927E1
S1131450382F222781819927282B392B8091150138
S1131460909116012817390721F02F5F3F4F09F09B
S11314701BC1828199278730910509F4C2C0883045
S11314809105ACF48330910509F441C08430910591
S113149034F48130910531F10297B1F1089585302A
S11314A0910509F460C006970CF09DC04FC08B30C5
S11314B0910509F4BCC08C30910544F48930910540
S11314C009F482C00A970CF08CC071C08D3091056C
S11314D009F4B9C08D3091050CF4CFC00E9709F40E
S11314E0BFC0089581E08093CF07809166018D7F0E
S11314F0809366018091350690913606AA27BB2712
S1131500AC01BD0180E01FC01092CF0774C083817D
S11315109927382F222784819927282B392B309318
S1131520360620933506809166018D7F809366018F
S1131530E0916005EE2309F0B7C0C901AA27BB27D3
S1131540AC01BD018E2F0E94050A0895838199275D
S1131550982F882724813327822B932B90935D0126
S113156080935C0108958091CF07882311F081E274
S113157001C080E28093A906809160052091A906AC
S11315804091570550915805811122602093A90676
S11315904093A406852F99278093A3060E94900761
S11315A080914B01811181E00E949E0108958091F8
S11315B06005882309F078C080E48093A9068091AF
S11315C03506909136063AC080916005882309F06B
S11315D06BC080E68093A90680915C0190915D01C7
S11315E02DC084E0E1CF80914B01882309F05CC0D9
S11315F081E080936005809166018D7F8093660110
S1131600089520914B01222309F04EC020936005D8
S11316108091CF07882309F447C0809135069091C3
S11316203606AA27BB27AC01BD01822F8CCF80E8E8
S11316308093A90680912A0790912B078093A40692
S1131640892F9927A9CF83819927982F88272481C7
S11316503327822B932B90932B0780932A0708958B
S113166083819927982F882724813327822B932BD2
S113167090936A0580936905089580EA8093A9068A
S11316808091690590916A058093A406892F992712
S11316908093A3060E94900780914B01882309F44C
S11316A083CF81E00E949E010895EF92FF920F93F1
S11316B01F9379018A01653018F4462F552702C01B
S11316C045E050E0BC018BE595E00E945E32E0927B
S11316D01801F092190100931A0110931B018BE574
S11316E095E00E94250A1F910F91FF90EF900895B5
S11316F0AF92BF92CF92DF92EF92FF920F931F931C
S1131700F82E5A016B010E943609DC01CB0151E02D
S1131710E52E96018501AC01BD018F2D0E948E033B
S11317201F910F91FF90EF90DF90CF90BF90AF90FB
S11317300895EF92FF920F931F938091000190916F
S11317400101AA27BB2769E0880F991FAA1FBB1FA5
S11317506A95D1F780934C0190934D01A0934E016B
S1131760B0934F010E941202DC01CB01E0904C01C6
S1131770F0904D0100914E0110914F01BC01CD013B
S1131780A80197010E94B034DC01CB018E0D9F1D8E
S1131790A01FB11F80934C0190934D01A0934E0163
S11317A0B0934F0110925C04209181012D7F20930E
S11317B08101AC01BD0183E00E94780B1F910F9160
S11317C0FF90EF9008950E941202DC01CB01877014
S11317D090700496209181012D7F20938101AA2786
S11317E0BB27AC01BD0183E00E94780B0895AF9242
S11317F0BF92CF92DF92EF920F931F935B016C0124
S11318000E943609DC01CB0171E0E72E96018501C7
S1131810AC01BD0185E00E948E031F910F91EF90F2
S1131820DF90CF90BF90AF900895EF92FF920F9307
S11318301F938C017B010E941202DC01CB018023E7
S113184091238E0D9F1DAA27BB27BC01CD010E94A9
S1131850F70B1F910F91FF90EF900895CF92DF92B5
S1131860EF92FF920F931F93CF93DF93EC0180913C
S11318702401E82FFF27EE0FFF1FE35CFB4FE080FE
S1131880F180E114F10409F480C1F70180819181B0
S11318908C179D0709F079C1662369F060E070E058
S11318A0CE010E94CF02CE010E94F60460E072E0F5
S11318B08FEF91E068C180912601882309F44FC01D
S11318C08BA5882309F04BC0CE010E94C5020E945B
S11318D0C801982F8F3F71F08EE0989FF00111247A
S11318E0EF59FB4F85858F5F8587853018F0CF01D1
S11318F00E947F058AE10E949E01F7018381815045
S11319008383882349F060E070E0CE010E94CF0217
S1131910CE010E94F60433C1F7018281882361F469
S1131920F0923207E09231078281882369F461E002
S1131930CE010E94370808C0F701808191810E947E
S1131940DC04C7010E94C20460E070E0CE010E9482
S1131950CF02CE010E94F6040E94C8030EC1F70113
S11319600281002309F560E070E0CE010E94CF02FD
S1131970CE010E94F604CE010E94C5020E949B057E
S1131980F0923207E092310760E070E0F701808165
S113199091810E94CF020E94C803602FCE010E9451
S11319A0370800932501EBC080918D058C3008F039
S11319B0ECC060E070E0CE010E94CF02CE010E9434
S11319C0F604CE010E94C5020E949B05F701C08067
S11319D0D1808091C907843009F057C0C6010E94A4
S11319E02D032091C907622F0E947D34921708F0BD
S11319F04CC0992361F48091CE07992701969C01EC
S1131A002C7F3170821B930B8093CE0739C09217C1
S1131A10B8F575E0C92FDD27291B622F8091CE0709
S1131A20AE01480F511DCA0157FD03968C7F9A01E0
S1131A30281B390BD901AA0FBB1FAA0FBB1FA20F6A
S1131A40B31FA356BA4FCA0101969C0197FF03C066
S1131A509A012C5F3F4F2C7F821B930BFC01EE0FEE
S1131A60FF1FEE0FFF1FE80FF91FE356FA4F372F42
S1131A7001900D923A95E1F761502196662371F633
S1131A808091C90781508093C9079091CE078091B6
S1131A90C907890F912D911D9C018C7F9370281B80
S1131AA0390B8901000F111F000F111F020F131FA3
S1131AB003561A4FC6010E940703F80180839183DD
S1131AC09091CE078091C907890F912D911D9C019A
S1131AD08C7F9370281B390B8901000F111F000F95
S1131AE0111F020F131F03561A4FC6010E9415033C
S1131AF0F80182839091CE078091C907890F912DB7
S1131B00911D9C018C7F9370281B390B8901000F58
S1131B10111F000F111F020F131F03561A4FC60186
S1131B200E941D03F80184839091CE078091C90718
S1131B30890F912D911D9C018C7F9370281B390B6B
S1131B408901000F111F000F111F020F131F0356ED
S1131B501A4FC6010E942503F80183838091C907A7
S1131B608F5F8093C9070E94C803F7018081918128
S1131B700E94DC04C7010E94C2041092250160E89F
S1131B8070E08FE790E00E94150CDF91CF911F91D8
S1131B900F91FF90EF90DF90CF900895AF92BF9296
S1131BA0CF92DF92EF920F931F93CF93DF93AA24E8
S1131BB0BB24650110E00E943609FC01EB01809111
S1131BC09D0190919E01A0919F01B091A001C81B1D
S1131BD0D90BEA0BFB0B2091B8013091B90140916C
S1131BE0BA015091BB012115310541055105E1F0C0
S1131BF08FB7F894082F1127A09142078A2F9927AD
S1131C00BC016170707080FF02C061E070E0672BFE
S1131C1039F4AE7FA09342072C1B3D0B4E0B5F0B98
S1131C200FBF59016A0111E0112371F00E943609B6
S1131C30DC01CB0121E0E22E96018501AC01BD015E
S1131C4087E00E948E0305C08091A5018D7F80935B
S1131C50A501DF91CF911F910F91EF90DF90CF906D
S1131C60BF90AF9008951F93CF93DF93182F482F01
S1131C7055278BE090E0489FE001499FD00D589F85
S1131C80D00D1124CA54DE4F61E070E0688379837B
S1131C901A868A819B81AC81BD810097A105B1051B
S1131CA021F18FB7F894282F3327FA0133E0F69502
S1131CB0E7953A95E1F7EE5BF84F4770507002C034
S1131CC0660F771F4A95E2F78081862B80832FBFAA
S1131CD01A821B821C821D821E821F82188619860C
S1131CE0812F0E94D2060E94CE0DDF91CF911F91C9
S1131CF008958A9719F480E00E94330E0895982F6E
S1131D0080913C01882399F5992389F531E030933A
S1131D103C018091140180933B0120914701822F63
S1131D2083238093600480910E0190910F0190931E
S1131D303A0180933901809146018093380132271A
S1131D4031702E7F232B822F8170E82FFF27EE0F17
S1131D50FF1FE05FFE4F8081918190930F0180937C
S1131D600E01277E209347018AE00E949E01089578
S1131D70262FE2EFF0E02927220FF11DE20FF11DDB
S1131D80C895982F802D3196C895902508951F9356
S1131D90CF93182FC62F80919C05992781309105E8
S1131DA009F1823091051CF4009749F025C1823075
S1131DB0910509F454C0039709F464C01DC11123AB
S1131DC009F441C11092AE011092AD0110929E0629
S1131DD01092E20610926E059093AA018093A901D5
S1131DE081E04DC0112309F02EC18091A901909189
S1131DF0AA010E94B80E9093AA018093A90182E0DF
S1131E0080939C05C093E206C43409F0F5C0C43441
S1131E1009F0F2C0212F8091470180FF03C0982F61
S1131E20969503C0982F96959695917099F480FF96
S1131E3002C0846001C082608093470180914701A1
S1131E40877E886080934701109246018FEF8093CC
S1131E50140101C025E0222309F4F5C0CDC01123EB
S1131E6009F0CAC060936E058091A9019091AA01FE
S1131E700E94B80E9093AA018093A90183E08093F5
S1131E809C05E1C080919E068F3F09F4B5C01123E3
S1131E9009F449C0823008F4AFC09091AD01992390
S1131EA019F0E92FE15001C0E2E09E2FFF27E3552E
S1131EB0FE4F8281282F3327322F2227992319F0AE
S1131EC0E92FE15001C0E2E0FF27E355FE4F828194
S1131ED09927282B392B8091A9019091AA012817C1
S1131EE0390709F089C080E00E947F0E30916E05A9
S1131EF080913A0720913B07982F9F5F963008F016
S1131F0090E0921709F478C0E82FFF27E65CF84FB9
S1131F1032838F5F80933A07863010F010923A072D
S1131F200E94000469C0823008F452C08091AE015E
S1131F30E82FFF27E355FE4F8281482F5527342F82
S1131F4020914701822F86958695869583709927DF
S1131F508130910519F0029781F01FC0822F877E8E
S1131F60806180934701442311F484E001C080E040
S1131F70809346013093140110C080914601803350
S1131F8060F4E0910E01F0910F01E80FF11D408320
S1131F90809146018F5F809346018091AE01E82FC6
S1131FA0FF27E355FE4F92818F5F8093AE0183300C
S1131FB010F01092AE01892F9927682F8091A90102
S1131FC09091AA010E94B80E9093AA018093A9014E
S1131FD08091AD01E82FFF27E355FE4FC2838F5F49
S1131FE08093AD01833010F01092AD0180919E0674
S1131FF08F5F80939E0627C01092AE011092AD01B0
S113200010929C0510929E061092E20610926E05A4
S11320101092AA011092A901809137018D7F8093BB
S11320203701C1E08C2F0E947F0E809148018823E4
S113203031F084E080939C050E94630704C011235F
S113204011F0C0939C05CF911F910895282F8FB74D
S1132050F89499272CB95E9A8FBF0895CF93DF9394
S1132060FC016115710519F481E090E01BC0C09179
S1132070E607D091E707209719F085E090E012C0B9
S11320809093E7078093E6077093350760933407CE
S11320902196D093AC01C093AB01219780810E941B
S11320A02610CE01DF91CF910895982F8D5782305D
S11320B068F48091370181608093370180E2892739
S11320C0809350058DE78093E10602C09093E1066A
S11320D061E070E081EE96E00E942E109927089549
S11320E0809137018E7F809337018EE78093E106DC
S11320F061E070E081EE96E00E942E109927089529
S1132100AF92BF92CF92DF92EF92FF920F931F9301
S1132110CF93DF930E94A506FC01EB018091430558
S113212090914405A0914505B0914605A0902C07D7
S1132130B0902D07C0902E07D0902F079C01AD01C1
S11321402A0D3B1D4C1D5D1D79018A01EC1AFD0A07
S11321500E0B1F0BC817D907EA07FB0730F0281727
S113216039074A075B0770F005C0281739074A0783
S11321705B0728F4C217D307E407F50718F0EE2429
S1132180FF24870121E0E21620E8F20620E002079E
S113219020E0120730F1C050D048EF4FFF4FC093FA
S11321A04305D0934405E0934505F0934605C0509C
S11321B0D048E040F04080E090E8AFEFBFEFE80E99
S11321C0F91E0A1F1B1FE0922C07F0922D070093A3
S11321D02E0710932F07E12C50E8F52E012D112D19
S11321E014C08A0D9B1DAC1DBD1D809343059093A7
S11321F04405A0934505B093460510922C07109210
S11322002D0710922E0710922F07B7012CB53DB55C
S1132210C9018C1B9D0B03968E159F0520F0B901F7
S11322206D5F7F4F02C06C0F7D1F6115710511F446
S113223061E070E0615070407BBD6ABD80E186BFA3
S113224087B7806187BFDF91CF911F910F91FF9076
S1132250EF90DF90CF90BF90AF9008950F931F93AE
S1132260DC01CB016FB7F894062F11278093430547
S113227090934405A0934505B093460520932C07FD
S113228030932D0740932E0750932F070E94801000
S11322900FBF1F910F910895EF92FF920F931F9319
S11322A0CF938FB7F894C82FE0914A05F0914B056E
S11322B086A59927982F882727A53327822B932B28
S11322C0892B71F00E941202DC01CB016AE070E0FC
S11322D00E948934019690935401809353010DC058
S11322E00E941202DC01CB0166E470E00E94893492
S11322F00B9690935A05809359057C01002711276A
S11323000E94A506DC01CB01A8019701BC01CD0107
S11323100E942E11CFBFCF911F910F91FF90EF908C
S1132320089597B79F7D97BF90E296BF882319F0D1
S11323308EB5806402C08EB58F7B8EBD87B78062F8
S113234087BF80E090E008951F93182F81E00E94DA
S11323507F061FB9779BFECF8FB199271F910895F0
S11323600E94A41199270895982F8FB7F894282FC5
S1132370332780913101882321F42FBF80E090E03E
S113238008952FBF892F0E94A41199270895CF93F0
S1132390DF93982FEB018FB7F894282F3327809180
S11323A03101882321F42FBF80E090E00CC02FBFBF
S11323B0892F0E94A4118D2F99270E94A4118C2F7C
S11323C00E94A4119927DF91CF910895EF92FF9273
S11323D00F931F93CF93DF93EC017A01122F00E048
S11323E08FB7F894282F332780913101882321F463
S11323F02FBF80E090E019C02FBFC60FD11D8C2FD6
S113240080680E94A411D695C7958C2F807C0E9469
S1132410A411112341F0F70181917F010E94A411BD
S1132420082F1150F6CF802F9927DF91CF911F915C
S11324300F91FF90EF9008955F926F927F928F9229
S11324409F92AF92BF92CF92DF92EF92FF920F933F
S11324501F93CF93DF93CDB7DEB724970FB6F894CD
S1132460DEBF0FBECDBF3B014C015524CC24DD247F
S11324701EE5A12E11E0B12EF501608561FF43C177
S11324802081318142815381D401C301821B930B8A
S1132490A40BB50BE480F580068117818E159F058A
S11324A0A007B10708F42FC160FF03C06D7F6087E8
S11324B009C02E0D3F1D401F511FF501208331839C
S11324C042835383F3E0CF16D10409F491C024E08E
S11324D0C216D1046CF481E0C816D10451F192E023
S11324E0C916D1040CF07BC0C114D104B1F00BC1E6
S11324F0E5E0CE16D10409F4C6C0F5E0CF16D10448
S11325000CF4B5C026E0C216D10409F4BEC087E0BD
S1132510C816D10409F4BDC0F6C0809160058823B3
S113252009F0F1C08091CF07882309F4ECC084E05E
S1132530ADC08FB7F8949927E0903201EE2011F0E6
S11325408FBFE1C08FBF80B39927B5E0969587957B
S1132550BA95E1F7F82E91E0F92280916205909105
S1132560A7018917C1F1F916B1F584E090E09093C1
S11325703401809333018E010F5F1F4F80910A0154
S113258090910B018983892F9927F8018183809188
S11325907507909176078B83892F99278C838FB742
S11325A0F894282F332781E0809332012FBF82E1F2
S11325B00E949E0160E070E08DE10E94C71124E05A
S11325C0A8016E2D88E691E00E94E611C09AC09899
S11325D08DE00E949E01F092620581E157C060E0A7
S11325E070E082E10E94C71180E00E948F068BC0D8
S11325F080911F01882309F486C080911E018823DD
S113260009F481C080915C048823B9F48AE10E94B2
S11326109E018BE10E949E0180914C0190914D019D
S1132620A0914E01B0914F0121E020935C04AC01D4
S1132630BD0183E00E94050A66C08091EF068823ED
S113264099F48091000190910101880F991F909352
S11326500101809300018150944030F080E094E0C7
S113266090930101809300010E94990B4CC08091CA
S11326701F01882309F447C080911E01882309F4AF
S113268042C08AE103C01092250187E10E949E01A5
S11326903AC02091A1013091A2014091A30150912F
S11326A0A4018091B8019091B901A091BA01B091AF
S11326B0BB010097A105B10521F1821B930BA40B6B
S11326C0B50BB9F48091C001882369F48FB7F894ED
S11326D0282F3327809152018160809352012FBFAC
S11326E08CE10E949E0180E00E94D2061092C001FB
S11326F008C08093B8019093B901A093BA01B09334
S1132700BB010E94CE0D539489E090E0A80EB91E3F
S11327100894C11CD11C97E0951508F0ADCE83E058
S11327200E949E0124960FB6F894DEBF0FBECDBF63
S1132730DF91CF911F910F91FF90EF90DF90CF9099
S1132740BF90AF909F908F907F906F905F9008950F
S1132750882311F06F9A08956F9808951F9310E0DD
S1132760812F0E947F06BA9ABB98B99AB89A6C9A3C
S1132770C098812F0E94A813709A6B986A986898E1
S113278081E00E947F061F9108950F931F93CF93BA
S1132790082F8FB7F894282F3327122F80913101F7
S11327A0882321F02FBF85E090E021C090912F0174
S11327B0992341F482E080932F019093060180E0F5
S11327C090E002C081E090E09927C82F882311F49B
S11327D00E94AE138C2F9927282F882329F4009365
S11327E0090181E0809331011FBF822F9927CF9186
S11327F01F910F910895CF93C82F0E9485068823B7
S113280011F40E94AE1380912F01882359F481E0C2
S113281080932F01C093CB0584E10E949E0180E048
S113282090E01EC0EC2FFF27EC52F84F80818F3FC1
S1132830A1F4E0910701EC1781F0809108018F3F2A
S113284019F4C093080104C0FF27EC52F84FC08369
S1132850C093070180E090E002C085E090E09927F2
S11328609927CF910895CF93282F8FB7F894C82F25
S113287090913101992369F081E090E002C0880FC2
S1132880991F2A95E2F720913001282B20933001DB
S113289008C02093090181E080933101892F0E94AF
S11328A0FB13CFBF80E090E0CF910895CF9383E0F6
S11328B00E94C5139927C82F882319F083E00E942A
S11328C033148C2F9927CF9108951F93CF93DF93BF
S11328D0982F8FB7F894282F3327122F809109014E
S11328E0891721F02FBF81E090E071C04FEF409332
S11328F0090180912F01823009F03FC090910601B7
S11329009923D9F520E030E080910801841711F46F
S113291021E030E0232B69F58F3F79F0282F33270E
S1132920F901EC52F84F8081809308018F3F11F434
S1132930409307014083C90102C08FEF90E0809368
S1132940CB0581E080932F0184E10E949E0115C094
S11329502093090181E090E002C0880F991F4A95F5
S1132960E2F7809538233093300180E00E94FB1316
S11329702BC04093060190932F010E948506C82F17
S1132980DD27CC2331F48C2F0E947F06C093CB0724
S1132990C09A309130013323A9F0209109012F5FAF
S11329A0632F7727253008F020E0422F5527CB01ED
S11329B0042E02C0959587950A94E2F780FDC8CF4E
S11329C02F5FF0CF109231011FBF80E090E0DF91C4
S11329D0CF911F91089583E00E94651480E090E0F8
S11329E008951F93CF9311E010929B058FB7F8942D
S11329F0C82F80912D0190912E010997B9F489E097
S1132A000E94B41183E00E946514C09A8091CC05A1
S1132A10882321F083E00E948F0606C081E090E0C5
S1132A2090932E0180932D01CFBF40C0C09860E0E9
S1132A3070E082E10E94C71180914F05882311F054
S1132A4085E001C084E00E94B41183FD0EC080E0E3
S1132A500E94B41183FF09C010E080919B05882374
S1132A6039F085E10E949E0103C083E090E002C03A
S1132A7085E090E090932E0180932D01C09ACFBF02
S1132A80112341F01092700583E00E9465140E94A6
S1132A904C110CC00E94A506DC01CB0120E431E0FE
S1132AA040E050E0BC01CD010E942E11CF911F9156
S1132AB008958F929F92AF92BF92CF92DF92EF923E
S1132AC0FF920F931F93CF93DF938FB7F894C09027
S1132AD05105D09052058090B4019090B501C091F9
S1132AE05A04D0915B04AE01465F5F4F20913306D8
S1132AF0309134062417350708F09A018FBF590125
S1132B000894A108B108CA15DB05E8F47E01E80CB5
S1132B10F91C8E010C0D1D1DC114D10419F0F8010E
S1132B20808101C080E00E94A4118114910411F0FD
S1132B30F701808321960F5F1F4F0894E11CF11C5D
S1132B40CA15DB0548F381E00E94A8138FB7F894F7
S1132B50982FC114D10431F0CC0EDD1EF601808112
S1132B608FB901C01FB8D0935B04C0935A049FBFB0
S1132B7080E090E0DF91CF911F910F91FF90EF9053
S1132B80DF90CF90BF90AF909F908F900895CF9398
S1132B90DF939C01EA018FB7F8949927309352058B
S1132BA0209351057093B5016093B401509334069A
S1132BB04093330610925B0410925A048FBF452B46
S1132BC031F08FB10E945915482F552704C083E175
S1132BD00E949E01AE01CA01DF91CF910895CF9367
S1132BE0DF93C098C0915001D09151018FB7F894F0
S1132BF0282F332780913101882311F42FBF12C06D
S1132C002FBF8FE790E09093AD068093AC06809140
S1132C10AC060E94A41141E050E0BE0180E090E0C7
S1132C200E94C715DF91CF91089582E090E09093C0
S1132C30EE048093ED0484E00E94C513882319F404
S1132C400E94EF15089584E00E9433140895CF93F1
S1132C508FB7F894282F3327C22F8091ED049091D9
S1132C60EE04892B11F42FBF27C02091CD07222316
S1132C7049F081B1992745E0969587954A95E1F702
S1132C8080FD09C081B1992734E0969587953A95DE
S1132C90E1F780FD08C0222319F021502093CD07CD
S1132CA00E94151608C081E090E09093EE04809392
S1132CB0ED041092CD07CFBFCF9108950E94500725
S1132CC0C09AC09888E00E94B41188E00E94B411B0
S1132CD0C09A84E00E9465140E9427160895CF923A
S1132CE0DF92EF92FF920F931F93CF93DF936B01C9
S1132CF08091AC069091AD062091AC0686FFEEC0A3
S1132D002F7B822F99278E33910509F43EC1CF97EB
S1132D1009F03BC1C0915001D09151018E01095D70
S1132D201F4FE8808091ED049091EE04823091056C
S1132D3019F00397E9F1CDC083E090E09093EE049D
S1132D408093ED044E2D55279A012F5F3F4F6091DC
S1132D50C901862F9927821793073CF181B19927DE
S1132D60F5E096958795FA95E1F780FD0DC081B160
S1132D709927E4E096958795EA95E1F780FD04C0EC
S1132D806E1961506093C90188E28E1570F0EE20CF
S1132D9039F02196BE0180E090E00E94C715F5C08D
S1132DA0C09A84E00E94651491C00E945E16EDC032
S1132DB0C09A2196898121979927582F4427898180
S1132DC09927482B592B45FF19C08F819927382FF4
S1132DD022278E819927282B392B809104019091E9
S1132DE005012817390751F44770507041305105D7
S1132DF029F4C0988AE00E94B411C09A84E00E9429
S1132E0065148091B105882319F1EAE0EE1538F5CF
S1132E1080916F05E82FFF27EE0FFF1FEB52F84F4D
S1132E2080819181F8018683892F992785838091F8
S1132E306F05992701969C01287F3170821B930BA3
S1132E4080936F058091B10581508093B10507C0CF
S1132E508FEF9FEFF80186838FEF90E08583FE016B
S1132E60EE0DF11D808187FF31C0CD2879F1698194
S1132E706770E0915001F0915101623009F5A09121
S1132E804A05B0914B05208180912D0190912E012E
S1132E900797E1F4ED019B8183818917B9F487B722
S1132EA08F7E87BF81E08BA7E20FF11D829131965F
S1132EB088A780818F7789A780E00E948F0606C04B
S1132EC0613021F486E10E949E015FC00E942716B2
S1132ED05CC0C09A84E00E94651457C02E3309F088
S1132EE054C0C09A80912D0190912E010897B9F495
S1132EF0C09889E00E94B411C09A83E00E946514CE
S1132F008091CC05882321F083E00E948F063DC088
S1132F1081E090E090932E0180932D0136C0809142
S1132F204F05882349F484E090E090932E01809328
S1132F302D010E94F11429C083E00E946514809140
S1132F402D0190912E01089719F48AE090E002C0B7
S1132F5083E090E090932E0180932D0180914A05A7
S1132F6090914B050E94C4068091470590914805B5
S1132F707C01002711270E94A506DC01CB01A801D2
S1132F809701BC01CD010E942E11DF91CF911F91B9
S1132F900F91FF90EF90DF90CF9008950F931F93C0
S1132FA0CF9300914A0510914B05F80187A1992709
S1132FB0C82F882309F4CFE1C098809137078C1774
S1132FC041F08C2F9927806E9068BC0185E10E94A6
S1132FD0C711C0933707F801C081C1508FB7F89467
S1132FE0282F332780913101882311F42FBF13C078
S1132FF02FBF8EE390E09093AD068093AC06809152
S1133000AC060E94A4118C2F9927AC0160E070E0FB
S1133010C8010E94C715CF911F910F910895CF93B6
S1133020DF93DA01EA018A876E83872F99278F83DA
S113303082E290E08C831D82245F31E08FB7F894A4
S1133040482F552790914D05992319F430934D0538
S1133050392F4FBF432F5527442309F080C0809157
S11330605B01982F8F5F80935B01FD0193838FB782
S1133070F894682F772780913601833021F06FBF51
S113308081E090E063C085E080933601B0939707B8
S1133090A09396076FBFFD012193ED0189819927C4
S11330A0807290708983892F992781839927982F1B
S11330B0882729813327822B932B816498688983FD
S11330C0892F992781838091040190910501888734
S11330D0892F992789874BA748A749A74DA74CA7AC
S11330E0F1E0F093360760919607709197078FB7D8
S11330F0F894282F3327E22F80912D0190912E01EF
S11331008830910531F08A30910519F089309105A4
S113311011F4EFBF19C0019711F02FBF15C082E061
S113312090E090932E0180932D01F0934F057093BE
S11331304B0560934A05409370052FBF0E945614B7
S1133140882311F40E94CE1780E090E09927282F5D
S1133150882311F010924D05822F992702C085E033
S113316090E09927DF91CF910895AF92BF92CF92CB
S1133170DF92EF92FF920F931F93CF93DF93B82EBA
S11331807B01A42E83E08B1518F481E090E035C018
S1133190CB2DDD27CC0FDD1FCF53DE4FC880D98068
S11331A0C114D10419F085E090E027C068837983C5
S11331B0642FC7010E94B302809103018430E0F0C0
S11331C0C7010E94C102082F1127C7010E94C5022E
S11331D0B09203012A2DA701BC01802F0E940F1871
S11331E09927282F882329F084E080930301C8823B
S11331F0D982822F992701C0C601DF91CF911F91F7
S11332000F91FF90EF90DF90CF90BF90AF90089513
S11332104F925F926F927F929F92AF92BF92CF92A2
S1133220DF92EF92FF920F931F93CF93DF936C0182
S1133230992460E070E087E396E00E94CF025C018D
S113324081E08093E507F501C1828D2D9927808364
S1133250B5016E5F7F4FFAE2CF16D10449F4409076
S113326018015090190160901A0170901B0103C05D
S1133270442455243201FB0143821127072DF62CE7
S1133280E52CE2829301442755272183872D992732
S1133290AA27BB278083F50182819927AA27BB2708
S11332A0B82FAA2799278827332744275527A90108
S11332B033272227822B932BA42BB52B2E2D332798
S11332C044275527542F432F322F2227822B932B09
S11332D0A42BB52B242D332744275527822B932B3E
S11332E0A42BB52B0097A105B105C9F0FAE2CF16BE
S11332F0D10429F465E0962E6BE575E002C060E028
S113330070E0892D992706964D9710F056E1952E79
S1133310892D9927AC01C50106960E945E3286E08C
S1133320980E6FEF7FEF87E396E00E94B8026DE09E
S113333087E396E00E94BE02492D67E376E082E0CF
S11333400E94B518DF91CF911F910F91FF90EF90DC
S1133350DF90CF90BF90AF909F907F906F905F90E1
S11333604F9008953F924F925F926F927F928F9207
S11333709F92AF92BF92CF92DF92EF92FF920F9300
S11333801F93CF93DF93CDB7DEB723970FB6F8948F
S1133390DEBF0FBECDBFA0915001B09151011C9171
S11333A09D01210F311DF9018081881F8827881F05
S11333B0FD0182A7F90182919F012F5F3F4FFD011B
S11333C080A7F90180818F77FD0181A7A09050012A
S11333D0B09051013BE0832E912C8A0C9B1CF5018B
S11333E081859927582F442780859927482B592B65
S11333F083819927A82F782F8FEF8093CA078FB7DF
S1133400F894682F20E030E0E3EEF6E080819181CB
S11334108417950729F48281871749F02093CA07F6
S11334202F5F3F4F33962430310584F302C06FBFC2
S113343002C46FBF9091CA0730E08FB7F894282F69
S11334409F3F21F080912B01891719F490912B0152
S113345031E0892F9927FC01EE0FFF1FE80FF91FB8
S1133460ED51F94F40835183A283332331F080918E
S11334702B018F5F837080932B012FBFC5010E94A6
S1133480C5029C0180910401909105012817390718
S113349021F02F5F3F4F09F07BC3C5010E94C10299
S11334A0B4EF7B2E710E99278E30910509F4B1C0CB
S11334B08F3091051CF40D9749F0BDC387319105F8
S11334C009F4CAC0489709F4FCC1B5C3F40180816A
S11334D09927D82ECC2481819927C82AD92AB401C6
S11334E06E5F7F4F82819927AA27BB27582F4427D5
S11334F033272227FB0181819927AA27BB27DC01D7
S113350099278827282B392B4A2B5B2B82819927D3
S1133510AA27BB27BA2FA92F982F8827282B392B06
S11335204A2B5B2B83819927AA27BB27282B392B6E
S11335304A2B5B2BFAE2CF16D10449F4E090180130
S1133540F090190100911A0110911B0103C0EE249F
S1133550FF24870180916105882309F46CC3E11479
S1133560F10401051105A9F42115310541055105A1
S113357081F0C4010696672D66507AE2C716D1041D
S113358011F40E94550B8AE2C816D10409F053C302
S11335902AC0211531054105510559F4E114F104FE
S11335A00105110531F09AE2C916D10409F043C3AB
S11335B01AC0DA01C9018E199F09A00BB10B1816A4
S11335C019061A061B069CF4C4010696672D66505C
S11335D0EAE2CE16D10411F40E94550BFAE2CF169A
S11335E0D10409F028C380E00E94330E24C32E15B1
S11335F03F054007510759F42AE2C216D10409F0E5
S11336001AC38091C0018F5F8093C00114C3C601A7
S113361020C080916105882309F40DC3F4018081E1
S11336209927382F222781819927282B392B2A3251
S1133630310509F000C38091180190911901A091FE
S11336401A01B0911B010097A105B10509F4F3C259
S1133650C9010E940819EFC2C5010E942503C82EA2
S1133660C5010E941D03182F1F5F60E070E0C501B3
S11336700E94CF02FC01118360E070E0C5010E944A
S1133680CF02C5010E94F604FCE1F71508F4D3C289
S113369000E010E0C5010E942D039091C90789172D
S11336A010F401E010E0012B09F0C5C28091220161
S11336B099278823D1F1D82EDA94B9F18091240185
S11336C08D0D6DE00E947D34E92FFF27EE0FFF1F63
S11336D0E35CFB4F0190F081E02DE080F180C701B5
S11336E00E9407038C01C5010E94070308171907EC
S11336F019F7C7010E941503182FC5010E9415036D
S11337001817D1F6C7010E941D03182FC5010E9486
S11337101D03181789F6C7010E942503182FC50138
S11337200E942503181741F686C28091EF0688236C
S1133730B1F0BE016F5F7F4FC5010E94E2038C01AF
S1133740C5010E9489038850482F552723E9C216D2
S113375009F071C2B801C5010E949C086DC2BE0186
S11337606F5F7F4FC5010E94E20380E090E0A0916B
S11337708D05AA2311F481E090E0892B09F09EC005
S113378080E090E020914905222311F481E090E04B
S1133790682F7727662309F091C0222309F44BC2CE
S11337A080915D04E82FFF27EE0FFF1FEE54FA4FC0
S11337B040815181108211822150209349058F5FED
S11337C080935D048C3011F460935D048A01452B71
S11337D009F431C2AA2309F42EC280913C04E82FD3
S11337E0FF27EE0FFF1FEB58FA4F20813181108223
S11337F01182A150A0938D058F5F80933C048C307F
S113380011F410923C0479012115310509F413C215
S113381080E3F90111928A95E9F787E290E0A80E16
S1133820B91E89E0F50111928A95E9F789ED9FEFB8
S1133830A80EB91EF801A082B1828FEF82838EE1B7
S11338408383C8010E94D308882391F5CE01029690
S11338500E947303882319F560E070E0C5010E949B
S1133860CF02FC0182819927382F2227838199274F
S1133870282B392B8A819B812817390780F40E94D1
S1133880E30B60E072E08FEF91E00E94150C60E0C2
S113389070E0C5010E94CF02C5010E94F604809128
S11338A0930181FD03C087E10E949E01C701C4C149
S11338B0C7010E94DC04C8010E94C2040E94E30BF9
S11338C0BAC1672DC5010E94A402C5010E94C502A8
S11338D08F5F9F4F09F086C060E070E0C5010E94D1
S11338E0CF027C01C5010E94A3044C01F701D080E2
S11338F0FFE0DF220E94C801182F8F3F41F40E948D
S11339001D05182F8F3F59F0B4010E943005F701AF
S113391081819927682F812F0E94B7051BC087E3F7
S11339200E944505182F8F3FA9F0282F33278EE0DA
S113393090E0289FF001299FF00D389FF00D11248D
S1133940EF59FB4F808191810E94F108B401812FCE
S11339500E9430051F3F09F445C0DD2009F442C030
S113396060E070E0C5010E94CF028C01C5010E9495
S113397018059801280F311D83E0D89EC001112439
S1133980281B390BC0900401DD2061F18901F80185
S113399080819927382F222781819927282B392B39
S11339A08C2D992728173907C1F48281E82EFF242A
S11339B0C4010E94C8018F3F81F0282F33278EE075
S11339C090E0289FF001299FF00D389FF00D1124FD
S11339D0EF59FB4FE18686E08783DA940D5F1F4F32
S11339E0DD20A9F660E070E0C5010E94D9024C0117
S11339F060E070E0C5010E94CF028C01C5010E9405
S1133A001805F8019081492F55274F7050709A017D
S1133A10220F331F240F351F821B873009F00BC17F
S1133A20C5010E94A3047C0160E4C5010E946A06EA
S1133A30382E24010894411C511CF40181819927DA
S1133A40982F8827F20121813327822B932B8F5FB4
S1133A509F4F09F48DC053E0652E712C680C791CBE
S1133A60F40183819927982F8827F3012181332733
S1133A70822B932B892B41F5C7010E94C8018F3FEC
S1133A8001F50E941D05182F8F3FB9F480E00E94B4
S1133A904505182F8F3FA9F0282F33278EE090E09B
S1133AA0289FF001299FF00D389FF00D1124EF5944
S1133AB0FB4F808191810E94F108B701812F0E9400
S1133AC03005C7010E94E101F40181819927D82EB4
S1133AD0CC24F20181819927C82AD92AF40183814F
S1133AE09927182F0027F30181819927082B192B77
S1133AF0C7010E94FB01C7010E94AD03482F8A3011
S1133B0099F18091CC07E42FFF274817C9F48FB7A8
S1133B10F894282F332793E0EE0FFF1F9A95E1F7CF
S1133B20ED50FB4FE082F182C282D382048315837D
S1133B3081E090E0868317824F5F4093CC0713C0E7
S1133B408FB7F894282F332783E0EE0FFF1F8A9551
S1133B50E1F7ED50FB4FE082F182C282D38204830D
S1133B60158381E086832FBF632DC7010E947304F0
S1133B7060E8C5010E946A06882309F45CC081E0FC
S1133B8090E090930101809300010E94990B53C02F
S1133B90C5010E94C102873109F04DC0C5010E94D0
S1133BA0A3044C0160E8C5010E94AD048823C1F15F
S1133BB00E941202DC01CB016C01FFE3CF22DD2461
S1133BC080E490E0C80ED91EE0907901F0907A016B
S1133BD000917B0110917C0180917D0190917E0187
S1133BE0A0917F01B0918001E80EF91E0A1F1B1FEE
S1133BF00E943609DC01CB01E81AF90A0A0B1B0BF7
S1133C00A60166277727E416F5060607170740F08E
S1133C10809181018D7F8093810183E00E94780BE4
S1133C2060E4C5010E94AD04682FC4010E947304BE
S1133C30C5010E942503C501909351018093500151
S1133C400E94271623960FB6F894DEBF0FBECDBF91
S1133C50DF91CF911F910F91FF90EF90DF90CF9064
S1133C60BF90AF909F908F907F906F905F904F9098
S1133C703F9008959F92AF92BF92CF92DF92EF92BE
S1133C80FF920F931F93CF93DF93CDB7DEB72297A5
S1133C900FB6F894DEBF0FBECDBF809125018823F7
S1133CA009F04FC120E030E080912201882311F413
S1133CB021E030E0232B09F044C18091EF068823F2
S1133CC0A1F420E030E080915501909156018F5F7E
S1133CD09F4F11F021E030E0232B39F460E177E2CB
S1133CE080E090E00E94F70B2CC180912401E82F22
S1133CF0FF27EE0FFF1FE35CFB4FC080D180D6018E
S1133D008D919C910E948903982EA0905501B090AA
S1133D10560180910201882399F4C5010E94AD03E4
S1133D20E82F8091CC07E81758F4FF27A3E0EE0FA3
S1133D30FF1FAA95E1F7ED50FB4F8781992702C039
S1133D4080E090E0992720912901882311F1222312
S1133D5019F481E08093290180919C0181FDF1C0D7
S1133D600E941202DC01CB018F77907080589F4F24
S1133D705C01CC24DD240E943609DC01CB01E1E0A6
S1133D80EE2E96018501AC01BD0186E00E948E03F2
S1133D90D8C0222311F08093290100E010E0F6013D
S1133DA0808191810E942D039091C907891710F495
S1133DB001E010E0E02EFF24EE2019F00E94C80379
S1133DC0BDC08091AA069091AB06A816B90639F039
S1133DD08EE1F6018383B092AB06A092AA0680918D
S1133DE0EF068823F1F160E070E0D6018D919C919B
S1133DF00E94CF02FC011781A0915305B091540594
S1133E00F6012081318180E3F90101900D928A95B8
S1133E10E1F7E0922601E0905305F090540560E04C
S1133E2070E0C7010E94E2035C0180915305909108
S1133E3054050E9489038850482F5527133929F4C3
S1133E40B501C7010E949C0801C0C70190935405A5
S1133E508093530560E0D6018D919C910E942E0CB5
S1133E6070C0CE0101960E947303882311F0198259
S1133E701A8209811A8160E070E0F60180819181E3
S1133E800E94CF02FC010383812F99278283D601EC
S1133E904D915C91DA011196FD0181819927982F4A
S1133EA08827FA0121813327822B932B8062818317
S1133EB0892F9927FD01818381E0809326010E9447
S1133EC00405D6012D913C91882349F060E070E00F
S1133ED0C9010E94CF02FC018081806408C060E0B7
S1133EE070E0C9010E94CF02FC0180818F7B808336
S1133EF0F60100811181B501C8010E94B80267E191
S1133F00C8010E94BE02492DB80180E00E94B51884
S1133F109927882321F481E08093250112C08430FD
S1133F2019F4109227010DC0853059F0823049F4FC
S1133F306CE1D6018D919C910E94B30287E10E94AD
S1133F409E0122960FB6F894DEBF0FBECDBFDF915F
S1133F50CF911F910F91FF90EF90DF90CF90BF9082
S1133F60AF909F900895EF92FF920F931F938091CB
S1133F700301992701969C018C7F9170281B390BB2
S1133F802093030160E0322F432F5527FA01E40FF9
S1133F90F51FEF53FE4F80819181892B99F0832F78
S1133FA0869586958695E82FFF27E95AFB4F8081F1
S1133FB09927232F277002C0959587952A95E2F7B4
S1133FC080FF0AC04F5F5F4FCA018C7F9170342F0E
S1133FD0381B6F5F6430C0F230930301643018F013
S1133FE084E080930301E0910301E430F0F4FF27BF
S1133FF0EE0FFF1FEF53FE4F00811181C8010E9495
S1134000C102E82EFF24C8010E94C502BC01F801C8
S113401080818C509927282FA8018E2D0E940F187B
S1134020882319F089E10E949E011F910F91FF904E
S1134030EF900895FB01282F33272130310591F0AB
S1134040223031051CF4232B41F008952230310530
S113405099F02330310599F00895642FCF010E941F
S11340602E0C08956959774061F480911D018823CD
S113407041F010921D0108951092E50708951092E1
S1134080E5070895EF92FF920F931F93E82E8B019B
S1134090F42EE82FFF27EE0FFF1FEF53FE4F108281
S11340A011820E94B31F4F2DB8018E2D0E941A2039
S11340B01F910F91FF90EF9008958F929F92AF926E
S11340C0BF92CF92DF92EF92FF920F931F93CF9301
S11340D0DF93CDB7DEB724970FB6F894DEBF0FBEDB
S11340E0CDBF9927AA27BB27FC014D9710F00C944C
S11340F0E428EA5BFF4FEE0FFF1F0590F491E02DDB
S1134100099480917707882311F00C94E428F090A7
S11341104B01FF2011F00C94E42860E070E08AEC7D
S113412091E00E94E203EFE9F6E02BE0DC0101906C
S11341300D922A95E1F70AEC11E080912801882379
S113414019F484E090E041C063E1C8010E94B30225
S1134150C8010E940203FC0180911501909116018F
S11341608583892F9927848380915F04982F8F5F9B
S113417080935F04968383E990E08783F182E091E2
S11341803107F0913207309719F485E090E01DC0B3
S113419000831183F2828EE18383CF010E94D308CE
S11341A0882389F480912701882331F08091930139
S11341B081FD02C00E94C3011092320710923107A0
S11341C080E090E002C081E090E0892B69F581E015
S11341D0809377070C94E42880917407882311F066
S11341E00C94E42880914B01882311F40C94E42866
S11341F060E070E08AEC91E00E948E082BE0EFE929
S1134200F6E0DC01E22E01900D92EA94E1F7422FF0
S11342106AEC71E08FEF9FEF0E944208882321F43B
S113422081E080937407D0C70E94C107CDC7409135
S1134230A601442339F58FB7F894282F3327E0904B
S11342409705F09098050091990510919A05809131
S11342509A0690919B06A0919C06B0919D06E80E4B
S1134260F91E0A1F1B1F2FBF8091F2069091F306BF
S1134270A091F406B091F5069C01AD01C801B70107
S11342800E94E0090E943609DC01CB01BC01CD018A
S11342903FC00E9436095B016C012FEF3FEF4FEFE7
S11342A05FE770E08FB7F8949927709367068FBF24
S11342B0EEE5F1E067E0808581FF1CC0808191819B
S11342C0A281B38186017501E81AF90A0A0B1B0B56
S11342D0D801C701E480F58006811781E81AF90A3C
S11342E00A0B1B0BE216F306040715071CF4A801BE
S11342F0970171E06150399667FFDDCF772309F4A8
S113430063C712161306140615062CF0C601B50170
S11343100E941C1259C72093F2063093F30640936F
S1134320F4065093F50681E08093A601C601B50119
S11343300E94E00949C7E090D007F090D1070091AE
S1134340D2071091D30717FD05C0C801B7010E9419
S11343501C3318C0D801C70181709070A070B07070
S1134360A80197015695479537952795822B932B4E
S1134370A42BB52BBC01CD010E941C339B01AC01C5
S11343800E946F3220E030E040EA51E40E94B932EA
S11343900E94B733DC01CB0120E030E040E057E479
S11343A0BC01CD010E94693320E030E040E057E4D5
S11343B00E946F320894E11CF11C011D111DE09252
S11343C0D007F092D1070093D2071093D3070E942D
S11343D0FF32DC01CB018C018091A1069927982F33
S11343E088272091A2063327822B932B0196809352
S11343F0A206892F99278093A1060E949007809195
S1134400CF07882351F12091490130914A012017A7
S1134410310788F4C9018095909540915C015091D1
S11344205D018417950738F0240F351F20173107D5
S113443008F0CAC612C00217130708F0C5C6809157
S11344405C0190915D012817390708F4BDC6281B4B
S1134450390B0217130708F0B7C60093A406812F7F
S113446099278093A30680914B01882319F40E9415
S11344708B07AAC60E948607A7C6A0E0BA2F1A2FE8
S11344808FB7F894382FA0934C054A2F80913007AA
S1134490882309F441E0212F883009F421E0912F89
S11344A0893009F491E0222311F4992359F01093EF
S11344B0300780913307E82FFF27EE0FFF1FED56DB
S11344C0FA4F10833FBF222311F4992311F18091F5
S11344D08E058F5F80938E0580913907833499F41C
S11344E08FB7F894282F80913A0790913B0789174A
S11344F041F0892F8F5F80933B07863010F0109234
S11345003B072FBF09C0A0E0222309F4A1E0B1E0DA
S113451003C0442309F452C08FB7F894992730910B
S113452048018FBF332349F08FB7F894282F3327DE
S11345308AE0809330072FBF41C08FB7F894992742
S113454060919305209195058FBF8FB7F8949927B3
S113455070913A07E0913B077E1709F431E08FBF71
S1134560332311F5662301F58FB7F894482F5527A7
S113457082E080939305262F8FB7F8949927362FDE
S11345807E1709F431E08FBF332321F4FF27E65C63
S1134590F84F2281209394054FBF83E48093390719
S11345A06093330711E00AC02150223038F485E4C7
S11345B08093390781E080933307182FBB2349F098
S11345C08FB7F8949927A0933F018FBF89E00E9489
S11345D09E01809130078A3019F40E946307F4C564
S11345E0112309F4F1C58FB7F894282F33271092BB
S11345F068051092670510926D0581E0809330077D
S11346002FBF0E947010882309F4DEC58FB7F89479
S1134610282F332789E0809330072FBF0E9400049E
S1134620D3C5569A539A579A549ACEC588E0CAC5A8
S11346305698539857985498C7C5109243011092AE
S113464042018FB7F894992740913F018FBF809121
S11346503E01811143E080913D012091440130915C
S11346604501882309F0B0C580910D01882309F024
S1134670ABC56091B2017091B3016217730709F081
S1134680A3C5D8C08FB7F894992720913B01E09037
S11346903901F0903A0110913801009160048FBF04
S11346A033272115310511F484E001C080E0181B83
S11346B02115310519F4812F875001C080E0182F8E
S11346C0232B09F06FC0C7010E94FC03ABE0CA2E84
S11346D0D12CCE0CDF1C853609F064C0153009F0EE
S11346E061C080919507882309F459C0EBE5F5E092
S11346F0D6010D9001921A95E1F7809118019091DD
S11347001901A0911A01B0911B01CD01AA27BB2761
S11347100196A11DB11D8093180190931901A093D6
S11347201A01B0931B010097A105B10559F4019634
S1134730A11DB11D8093180190931901A0931A0132
S1134740B0931B018091180190911901A0911A0155
S1134750B0911B01DC019927882720911501309124
S1134760160144275527820F931FA41FB51F80935A
S1134770180190931901A0931A01B0931B01809121
S11347806105882361F08091E507882341F48AE27A
S113479090E00E9408198AE290E00E94790EC60116
S11347A00E94250A8FB7F894E02FFF27EE0FFF1F12
S11347B0E05FFE4FE082F18290914701002311F007
S11347C09B7F01C09D7F9093470110923C0153C190
S11347D080913807882309F4F7C401E010E0309190
S11347E03807832F8023B1F0812F9927FC01EE0F26
S11347F0FF1FEE54FE4F4081518110821182202F01
S11348002095322330933807892B21F463E0CA01C1
S11348100E94CB07000F1F5F183008F3D5C48091A6
S11348200D01E82FFF27EE0FFF1FEE54FE4F41E06E
S1134830608171810E94E107C7C48FB7F894E82EA4
S1134840FF2481E00E94911101E010E010932E01F9
S113485000932D0110922C0110923707EFBE8FB7F1
S1134860F894E82EFF240E9450071093EE0400935E
S1134870ED0489B78F7E89BF80E188BF8AB78260E3
S11348808ABF8AB78E7F8ABF89B7806189BFEFBE2E
S11348908FB7F894082F1127809133019091340138
S11348A0049719F483E00E94B4110FBF8FB7F894F2
S11348B0082F1127C09A80E00E9465140FBF03E0FF
S11348C00093360111E010931F0180911E0188238B
S11348D071F00E941202DC01CB019F718050904F55
S11348E0AA27BB27AC01BD01802F0E94780B10932F
S11348F0270120E030E080912201882311F421E097
S113490030E0232B11F40E94C301109328018091FD
S11349101E01882389F410931E0181E090E0909396
S11349200101809300010E94990B40E050E260E095
S113493070E084E00E94050A80914B01882301F114
S113494040E080915501909156018F5F9F4F09F48B
S1134950412F8FB7F894282F33271093EF068091B7
S11349609806909199069093560180935501109260
S11349705801109257012FBF442311F00E94C30124
S113498080E02091B8013091B9014091BA01509171
S1134990BB01211531054105510519F085E090E071
S11349A022C02093B8013093B9014093BA015093C7
S11349B0BB012093BC013093BD014093BE015093D1
S11349C0BF018093C0010E94D2068FB7F894282FAC
S11349D03327809142078160809342072FBF0E9452
S11349E0CE0D80E090E0182F80E00E94330E11235A
S11349F019F481E08093950781E0809361058091AB
S1134A00350690913606AA27BB27AC01BD0180E08C
S1134A100E94050AD9C381E08093360110921F01D8
S1134A2010922701D1C38FB7F8949927409135018B
S1134A308FBF83E0809336012091960730919707CA
S1134A4010924D0580910301843008F0BDC3E82F16
S1134A50FF27EE0FFF1FEF53FE4F60817181621736
S1134A60730709F0B1C30E944220AEC38FB7F89414
S1134A70992710925E048FBFA7C38FB7F894082FAD
S1134A801127809132018823E1F544EF51E060E081
S1134A9070E081E00E94780B34C08FB7F894282F1F
S1134AA0332780913201882329F080916F018D7F13
S1134AB080936F012FBF88C38FB7F894082F1127F5
S1134AC06091B4017091B501E0915105F0915205E6
S1134AD080913306909134061092B5011092B4017E
S1134AE0109252051092510510923406109233061A
S1134AF010925B0410925A0420E0AC01CF010E9492
S1134B006F160FBF61C38FB7F894282F3327909186
S1134B10CB059093060182E080932F012FBF992348
S1134B2009F052C38FB7F8949927209109018FBFD8
S1134B3033272230310509F499C02330310544F478
S1134B402115310571F02130310509F453C03CC3FE
S1134B502330310509F4A4C02430310509F4DAC046
S1134B6033C3C0988FB7F894E82EFF2480913301A3
S1134B70909134010297E1F583E090E09093340141
S1134B808093330168E170E08DE10E94C71111E068
S1134B901093A7011092320180B3992765E096958E
S1134BA087956A95E1F781238093620581E10E94EC
S1134BB09E01812F0E94B4116FE772E08CE10E9484
S1134BC0C71190910C0185E0989FC0011124825D6A
S1134BD09E4F9064BC0188E10E94C71162EE7AE2A4
S1134BE081E10E94C71166E57AE287E10E94C7115C
S1134BF0EFBEEAC28FB7F894282F3327F0900C0148
S1134C008E010F5F1F4F80910A0190910B018983E0
S1134C10892F9927F80181838091750790917607F0
S1134C208B83892F99278C832FBFC09886E00E949D
S1134C30B41185E0F89EC0011124825D9E4F9064FA
S1134C40BC0188E10E94C71124E0A80160E088E665
S1134C5091E00E94E611C09AC09883E00E94B411CA
S1134C60C09A81E00E94651480E1ACC2C0988FB7FD
S1134C70F894282F332780913101882311F42FBF12
S1134C800AC02FBF83E50E94B01180E00E94B011DA
S1134C9080E00E94B011C09A82E00E94651494C220
S1134CA08FB7F894992720912D018FBF3327243093
S1134CB0310581F02530310524F42230310539F0F5
S1134CC026C0285030402330310508F506C00E9424
S1134CD0CE177AC20E94F11477C2C09889E00E946C
S1134CE0B411C09A0E94EB148FB7F894182F8091D6
S1134CF0CC05882321F083E00E948F0606C081E062
S1134D0090E090932E0180932D011FBF5DC20E94FD
S1134D10EB145AC20E94EF1557C2E0914A05F09174
S1134D204B0586A59927982F882727A53327822BFB
S1134D30932B0A96AA27BB27AC01BD0182E00E94EF
S1134D40780B42C20E94B2193FC20E943A1E3CC272
S1134D5080915704882309F437C201E010E0909150
S1134D605704892F8023A1F0E12FFF27EE0FFF1FA7
S1134D70EF53FE4F2081318110821182802F809564
S1134D8098239093570443E0B901812F0E941A207D
S1134D90000F1F5F183018F317C210910301E12FA1
S1134DA0FF27EE0FFF1FEF53FE4FE080F1801082CC
S1134DB011820E94B31F41E0B701812F0E941A2083
S1134DC003C28091EF06882309F0FEC1CC24DD24C0
S1134DD09FEFE92EF92E4701B82E8091CC07B81623
S1134DE008F044C00B2D112783E0000F111F8A9592
S1134DF0E1F70D501B4FF80122813381FFEF2F3F64
S1134E003F0791F1809198069091990628173907E8
S1134E1059F1D8018D919C910E94FB01482F55278F
S1134E20465F5F4FF80164817581460F571F2081EB
S1134E3031818091550190915601A7812817390736
S1134E4061F44A018FB7F8949927709358016093DD
S1134E505701A0935A018FBF07C0AA2329F44E1506
S1134E605F0510F47A016801B394B7CFFFEFEF1632
S1134E70FFEFFF0609F475C00FEF80160FEF9006E1
S1134E8091F080915A01882341F0809157019091CB
S1134E9058010A96E816F90630F0C7010F968815EE
S1134EA0990508F05EC08091260790912707A0918C
S1134EB02807B09129070196A11DB11D80932607EB
S1134EC090932707A0932807B093290781E090E0E7
S1134ED090930101809300010E94990B80915501E8
S1134EE0909156010E94C8018F3F81F0282F3327EB
S1134EF08EE090E0289FF001299FF00D389FF00D7F
S1134F001124EF59FB4F8581877F8583D6018D91CD
S1134F109C910E94E101F601808191810E94C80167
S1134F20982F8F3F41F08EE0989FF0011124EF59A4
S1134F30FB4F158614868FB7F894282F3327D60194
S1134F408D919C919093560180935501F601848133
S1134F5095819093580180935701878180935A01DA
S1134F602FBF20911C01222339F08091550190918B
S1134F7056018F5F9F4F71F0222361F40FEF80166B
S1134F800FEF900639F41FEFE1161FEFF10611F051
S1134F900E94C30110921C0117C180911D01882336
S1134FA009F012C1E0915505F091560580830E94E5
S1134FB00405882339F0E0915505F0915605808168
S1134FC080648083E0915505F091560580915501E8
S1134FD0909156018283892F992781838091EF06CE
S1134FE0882361F0E0915505F091560580915701B1
S1134FF0909158018483892F992730C0809155015D
S11350009091560100915505109156052FEF8F3F51
S1135010920789F48091570190915801F801848393
S1135020892F99278383E0915505F0915605808156
S11350308068808314C00D5F1F4F0E94FB01992775
S11350400A962091570130915801280F391FF80111
S1135050218303501040832F9927F801838360E054
S113506070E089E997E00E94CF027C0160E070E083
S113507089E997E00E94D90275E0C72ED12CC80EA9
S1135080D91E85E190E063E070E00E948934162F18
S1135090603108F01FE040E0842E042F4117B0F582
S11350A06EE0A62EB12C53E0952E80912001800F46
S11350B0912D911D01966AE070E00E949D349C013F
S11350C099278A9DD0018B9DB00D9A9DB00D112416
S11350D0AF59BB4FFD01858180FF13C0499DB001CD
S11350E011246C0D7D1D8D919C911197FB01818381
S11350F0892F99278083FD018085FB018283822E7D
S11351004F5F0F5F0A3010F4411778F2809220014C
S113511080912101982F8F5F80932101F701918362
S1135120842F8F70808383E0489FC0011124895F9E
S1135130082F1127602F89E997E00E94A4026FEFDE
S11351407FEF89E997E00E94B80268E189E997E076
S11351500E94BE02402F69E977E081E00E94B51801
S11351609927882321F481E080931D012DC0843088
S113517059F510921F0128C050E08FB7F894682F9A
S1135180772740915201842F99279C012170307018
S113519080FF02C021E030E0232B21F04E7F4093BA
S11351A0520151E06FBF552379F080916105882346
S11351B041F08091E507882321F48AE290E00E947F
S11351C008198CE10E949E0124960FB6F894DEBF64
S11351D00FBECDBFDF91CF911F910F91FF90EF9044
S11351E0DF90CF90BF90AF909F908F900895809163
S11351F043078F3FD1F09091430780914307E82FF5
S1135200FF27E858F84F8081809343078091430734
S11352108F3F11F480939807892F9927FC01E85850
S1135220F84F2FEF20839C0102C02FEF30E02F3F77
S113523019F480E090E00895822F0E945D2081E0BF
S113524090E00895CFEFD0E1DEBFCDBF8FB7F894E3
S1135250C82F4DE150E06FEF70E088E797E00E94BF
S113526067328FEF8093430780939807D29AD19A3D
S1135270D09ADA9AD99AD89A81E08EBD88E080BF14
S113528083E083BF2CB53DB54AE78CB59DB5821745
S1135290930708F441509C014423B9F792B782B7AD
S11352A08917E9F32CB53DB592B782B78917E9F3AD
S11352B08CB59DB5821B930B409645E096958795DA
S11352C04A95E1F7909392058093910513BE83B7B5
S11352D08EBD8EB580BF12BE1DBC1CBC8FEF86BFB9
S11352E086B780937C0080B7282F332727703070CF
S11352F021153105C1F7D498DC983DBD2CBD87B785
S1135300846087BF8EB5887F84608EBD30938900AA
S11353102093880080917D00846080937D0080913B
S11353208A00887F826080938A0080E285BF0E9421
S1135330F728282F33272223D1F780E094E0909395
S1135340B7018093B6012093C0011092B801109266
S1135350B9011092BA011092BB011092BC011092D3
S1135360BD011092BE011092BF01209352012093FF
S113537042072093CE072093C907E2EBF5E084E4CB
S113538097E081939193049625E0E83CF207C9F3F2
S1135390C4F38CE08093490510925D04E5E7F5E0E1
S11353A08AEF91E081939193C09625E0EB38F20760
S11353B0C9F3C4F38CE080938D0510923C041092E1
S11353C07105109272051092730510927405109273
S11353D01F0110921E0110922607109227071092A7
S11353E02807109229071092EF068FEF9FEF9093F2
S11353F05601809355011092580110925701109252
S1135400590110925A011092CC0780910401909195
S11354100501909399068093980660E070E089E90D
S113542097E00E94D902909356058093550583E630
S113543095E0909332078093310786E08093A8012A
S11354408EEA96E09093540580935305809104016D
S1135450909105019093AB068093AA0610925F0485
S1135460E6E6F4E089E010823E96815087FFFBCFA8
S11354708FEF9FEFE3EEF6E0808391831282339601
S113548026E0EC3EF207C1F3BCF310924D051092F6
S11354904E050E941202DC01CB0180935B01109245
S11354A0DE0688E696E090935101809350018D9832
S11354B0B89A8C988FEF8093D407B89A8F9ABD9A34
S11354C0809104019091050190937607809375076C
S11354D080913601882319F481E08093360100918C
S11354E0910510919205C801AA27BB273CE0880FBB
S11354F0991FAA1FBB1F3A95D1F7BC01CD0120E02B
S113550031EE40E050E00E94B034DA01C901019765
S113551089B9892F99278093900082E08BB986E01E
S1135520809395001AB8C801AA27BB271CE0880FEE
S1135530991FAA1FBB1F1A95D1F7BC01CD0120E00A
S113554031EE40E050E00E94B034DA01C901019725
S113555080939900892F99278093980082E0809303
S11355609B0086E080939D0010929A0084E490E072
S113557090936C0580936B0510929305109295059A
S11355801092300710926D051092390710928E0513
S1135590109268051092670510924C05109233071B
S11355A01092AE011092AD0110929C0510929E06CD
S11355B01092E20610926E051092AA011092A901AF
S11355C010923B0710923A078091150190911601B1
S11355D00196AA27BB278093EF049093F004A0932D
S11355E0F104B093F20480B7886080BF8BE083BF7E
S11355F086EE81BF87B7826087BF0E945C090E94E4
S1135600F7288823E1F7CFBF789444E650E060E0C0
S113561070E081E00E94050A80913601813019F022
S113562081E090E025C082E0809336018FB7F89442
S1135630282F33278091330190913401892B11F065
S11356402FBF14C081E090E0909334018093330124
S11356502FBFC59A0E94A506DC01CB0124E130E0EE
S113566040E050E0BC01CD010E942E1180E090E0AA
S1135670892B11F00E945A0780911501909116010F
S1135680892B31F481E080934B0186E00E949E01D6
S113569080911501909116018093A006892F992776
S11356A080939F061092A90680E094E090933606BA
S11356B08093350610925D0110925C0181E0809325
S11356C0CF071092600580ED97E090932B078093AD
S11356D02A0788E293E290936A05809369058FB75D
S11356E0F894682F5EC087B79927887B892B41F48B
S11356F080917D00282F33272B7F2115310519F048
S113570080E090E021C08DB19927E6E096958795D9
S1135710EA95E1F7AC014170507080FF02C0C90105
S113572013C08AB190919A00892B807C21F48091D6
S1135730740082FF02C0CA0107C0379B03C081E026
S113574090E002C085E090E0282F87B79927837006
S11357509070892BA1F080B7992787709070892B5E
S1135760D1F781B792B7891B8C3018F082B7853F87
S113577018F082E090E005C083E090E002C085E08C
S113578090E0E82F281708F4E22F85B7837EFF27DF
S1135790E451FF4F9491892B806285BF789488955A
S11357A0F894809143078F3FC9F09091430780910B
S11357B04307E82FFF27E858F84F80818093430779
S11357C0809143078F3F11F480939807892F99277D
S11357D0FC01E858F84F2FEF208302C08FEF90E0D0
S11357E08F3F09F480CF6FBF0E945D2078CF1F9256
S11357F00F920FB60F9211242F933F934F935F9301
S11358006F937F938F939F93AF93BF93EF93FF9384
S113581083B783BF00B600FCFDCF81B799270196FB
S11358209C014427552780912F0690913006A09122
S11358303106B0913206820F931FA41FB51F8093C7
S11358402F0690933006A0933106B09332067894D5
S11358500E945C09FF91EF91BF91AF919F918F914D
S11358607F916F915F914F913F912F910F900FBE58
S11358700F901F9018951F920F920FB60F9211243C
S11358808F9383B783BF00B600FCFDCF8F910F9039
S11358900FBE0F901F9018951F920F920FB60F9284
S11358A011242F933F934F935F936F937F938F9321
S11358B09F93AF93BF93EF93FF935F9B36C06CB1FD
S11358C0E091F006F091F1063097C1F080918F05D8
S11358D090919005E80FF91F6083019690939005CD
S11358E080938F052091CD053091CE0582179307C3
S11358F0E0F01092F1061092F00617C06E3719F41A
S113590060E081E010C0809137016D3721F482603E
S1135910809337010AC081FF05C08D7F80933701D2
S113592080E2682780E00E94C70EFF91EF91BF914B
S1135930AF919F918F917F916F915F914F913F9123
S11359402F910F900FBE0F901F90189578941F926F
S11359500F920FB60F9211241F932F933F934F93DF
S11359605F936F937F938F939F93AF93BF93CF93E3
S1135970EF93FF932091AB013091AC0180913407F8
S1135980909135072817390780F4E091E607F091E4
S1135990E707E20FF31F2F5F3F4F3093AC012093D3
S11359A0AB0180810E942610CDC01092E7071092AF
S11359B0E6078091370180FF0EC08E7F8093370108
S11359C0809150058093E10661E070E081EE96E0FD
S11359D00E942E10B7C0809130079927843091051A
S11359E009F492C0853091054CF48230910509F197
S11359F0833091059CF5019789F09FC0863091050D
S1135A0009F490C0863091050CF485C08730910567
S1135A1009F48FC0089709F493C08FC080913907A7
S1135A200E945510C82F83E0809330076091390796
S1135A300AC080918E050E945510C82F83E0809380
S1135A40300760918E0580916705909168050E94EA
S1135A50B80E90936805809367056DC08FB7F8946E
S1135A60182F80913307E82FFF27EE0FFF1FEC5606
S1135A70FA4F80810E945510C82F80913307E82F78
S1135A80FF27EE0FFF1FEC56FA4F608180916705E8
S1135A90909168050E94B80E9093680580936705FD
S1135AA080916D058F5F80936D0580913307813000
S1135AB031F580914001E0914401F0914501E80FF6
S1135AC0F11DE081982F9F5F9093400180914101E7
S1135AD0891730F482E08093950580E090E002C05D
S1135AE08E2F9927E82FFF2780919505823039F072
S1135AF080916D058F3F19F0E093960503C084E013
S1135B00809330071FBF17C0809167050E9455100E
S1135B10C82F85E00BC0809168050E945510C82FDE
S1135B2086E004C00E947010C82F87E0809330077D
S1135B3002C088E003C0CC2329F089E080933007B9
S1135B400E940004FF91EF91CF91BF91AF919F917B
S1135B508F917F916F915F914F913F912F911F9101
S1135B600F900FBE0F901F9018951F920F920FB6B3
S1135B700F9211248F9380919B0087FF02C0809124
S1135B809C008F910F900FBE0F901F9018957894E2
S1135B901F920F920FB60F9211240F900FBE0F9009
S1135BA01F90189578941F920F920FB60F9211249C
S1135BB00F900FBE0F901F90189578941F920F921C
S1135BC00FB60F9211240F900FBE0F901F901895CF
S1135BD078941F920F920FB60F9211240F900FBE5C
S1135BE00F901F90189578941F920F920FB60F92F2
S1135BF011248F939F9380918800909189009F91A5
S1135C008F910F900FBE0F901F90189578941F924C
S1135C100F920FB60F9211242F933F938F939F935C
S1135C208FB7F894282F332780913A0490913B043E
S1135C30019690933B0480933A042FBF9F918F91D8
S1135C403F912F910F900FBE0F901F90189578944D
S1135C501F920F920FB60F9211242F933F934F93DD
S1135C605F936F937F938F939F93AF93BF93CF93E0
S1135C70EF93FF9387B78F7E87BF78948FB7F8949D
S1135C80C82F80912C0790912D07A0912E07B091D9
S1135C902F070097A105B10509F069C080912D0176
S1135CA090912E018530910509F443C08630910509
S1135CB030F48330910579F0049791F146C089302E
S1135CC0910571F18A30910518F4079781F13DC06F
S1135CD00A9701F13AC080B3992755E096958795C4
