S12300000C9473010C9490010C942A060C9490010C94360C0C9405060C9490010C94FB0538
S12300200C9490010C9490010C9490010C9490010C9434060C940D0D0C9490010C94900102
S12300400C9490010C9490010C9490010C9490010C9490010C9490010C94A80A0C949001F3
S12300600C9490010000000000000000000000000000000000000000722E3028000010083B
S1230080000040028591808094199498918815981599848095999598000000004004000014
S12300A002024420A5199589A4B80511A4B015191501059991892020809151050111C38139
S12300C08385859195098595950D1598242081914103818742064220441205110204849025
S12300E0030000103F065B4F666D7D077F6F777C395E7971004053332944494E2EE351D144
S1230100635262E2CDC34FCFD2ADEDF2A8A3B260E061E19283888DC80444D050E884C46766
S123012066635E59534D453E362E271F19130E090605049B0395038F03880382037B037353
S1230140036C0364035C0353034B03420339032F0326031C0312030703FD02F202E702DCED
S123016002D002C502B902AD02A102950289027C027002630257024A023E02320225021903
S1230180020C020002F401E801DC01D001C401B801AD01A20196018C01810176016C016202
S12301A00158014E0144013B0132012901200117010F010701FF00F700F000E900E100DBD8
S12301C000D400CD00C700C100BB00AA03A703A403A1039E039B039803940391038D038A76
S12301E003860382037E037B03770372036E036A03660361035D03580353034F034A03455C
S12302000340033B03360330032B03260320031B0315030F030A030403FE02F802F202EC3A
S123022002E602DF02D902D302CC02C602BF02B902B202AC02A5029E02970291028A028349
S1230240027C0275026E02680261025A0253024C0245023E0237023002290222021B0215F4
S1230260020E0207020002F901F201EC01E501DE01D801D101CB01C401BE01B701B101AAAF
S123028001A4019E01980192018C01860180017A0174016E01680163015D01580152014DD1
S12302A001470142013D01380133012E01290124011F011A01150111010C0108010301FF09
S12302C000FB00F600F200EE00EA00E600E200DE00DB00D700D300CF00CC00C800C500C24A
S12302E000BE00BB000011241FBECFEFD8E0DEBFCDBF11E0A0E0B1E0EEE9F1E202C00590CD
S12303000D92A836B107D9F713E0A8E6B1E001C01D92A335B107E1F70E94BE020C94CD100B
S12303200C940000E4E6F0E090819E7F9083206820937A00482B40937C0060937B0081E0F8
S1230340809369011092680180E090E00895EAE7F0E080818F778083E4E6F0E0808181607D
S123036080831092690110926801089580916901882319F42FEF3FEF0AC081E0809368019C
S123038080917A00806480937A0020E030E0C901089590916801992399F090917A0096FDE9
S12303A00FC01092680190917C008295880F807E892B80937C00209178003091790002C0AE
S12303C02FEF3FEFC901089580E090E008950895982F91509730B0F4992787FD9095FC01E3
S12303E0EE0FFF1FE80FF91FEE0FFF1FEE0FFF1FE659FE4F80819181009721F0118210822D
S123040080E008958FEF0895EF92FF920F931F93CF93DF937B018C01CAE6D1E088819981F9
S12304200097E9F0288539854A855B85E216F30604071507A0F06A817B810E94810E888561
S12304409985AA85BB852C813D814E815F81820F931FA41FB51F88879987AA87BB872C96B3
S123046081E0CA3CD807D1F6DF91CF911F910F91FF90EF9008954F925F926F927F928F929B
S12304809F92AF92BF92CF92DF92EF92FF921F93CF93DF935C012B0139014A010E94450E28
S12304A06B017C01EAE6F1E0C0E0D0E01C2F808191810097E1F5C401B301E7E0660F771F48
S12304C0881F991FEA95D1F728EE33E040E050E00E946810C901DA019E01220F331F2C0FDD
S12304E03D1FF901EE0FFF1FEE0FFF1FE659FE4FB182A082E901CC0FDD1FCC0FDD1FC459D6
S1230500DE4F59824882E901CC0FDD1FCC0FDD1FC259DE4F88839983AA83BB83C80ED91EC6
S1230520EA1EFB1EC086D186E286F38607C021963C96C830D10509F0B9CF1FEF812FDF914B
S1230540CF911F91FF90EF90DF90CF90BF90AF909F908F907F906F905F904F9008950895B9
S1230560A89580916000887F806180936000A89580916000886180936000FFCFFF920F9363
S12305801F93DF93CF9300D000D000D0CDB7DEB70FE000937E0083E0F82EF0927F008FE14E
S12305A08093640080B7806880BF8FB78983F89480E88093610011E01093610089818FBF5B
S12305C084E083BF0E945B0E882309F4FFCF0E944D04882309F4FFCF0E94230E009709F024
S12305E0FFCF8EEB9AEBAEEFBAEC8093C7029093C802A093C902B093CA022EEB3AEB309311
S1230600CC022093CB022BE02093CD028093E3029093E402A093E502B093E6021092CE0243
S12306201093CF021093D0021093D1021093D2021093D3021093D4021092D5021092D602FC
S1230640F092D7020093D8020E94E401009709F0FFCF0E942D0C009709F0FFCFFE013296E9
S123066085E0DF011D928A95E9F74A8140644A835B81506C5B836C81687F61606C8383EFDB
S12306808D830E8373EF8FE00E94E407009709F0FFCF0E94AC03009709F0FFCF80E090E07A
S12306A00E943E061092EA0278948EE396E060E070E028EE33E040E050E00E943B0287EF71
S12306C095E060E070E00E94810E86E164E070E00E94B00782E90E944A070E94B70E0E9425
S12306E0450E0E9404028091FF028823B1F783B7817F83BF83B7816083BF8895EECFCF9381
S1230700DF938EE160E040E427E00E94920182E48A95F1F700C00E94B60180E00E94C90102
S1230720EC018FEFCF3FD807C1F30E94A7019E01442737FD4095542F60E070E381E190E064
S12307400E948A10C901DF91CF91089586E164E070E00E94B007089586E164E070E00E9494
S1230760B00782E90E944A0780E090E0089520E030E004C02F5F3F4F885E934043E0883E61
S12307809407C0F764E0220F331F6A95E1F704C02F5F3F4F8456904084369105C8F754E098
S12307A0220F331F5A95E1F703C02F5F3F4F0A978A309105D0F744E0220F331F4A95E1F7F6
S12307C0282B392BC9010895AC014F705070FC01EF2FFF27E295EF7068EE73E0E69F9001F5
S12307E0E79F300DF69F300D1124240F351FAC01407F5070A4E056954795AA95E1F7BA015B
S1230800660F771FE3E0440F551FEA95E1F7640F751F260F371F80709F70892F992764E695
S123082070E0869FA001879F500D969F500D1124240F351FC9010895FC018081823358F467
S1230840E82FF0E0EE0FFF1FE050FF4F0190F081E02D099517C0833329F4CF0101960E94B4
S1230860D60410C0843329F4818192810E94D20409C0803811F481E003C0813819F482E097
S12308800E9477048091C10080688093C10008951092CA010E94780C08958FE76BEC71E0BE
S12308A04CE554E00E94400C882319F081E08093CA018091CA010895BC018CE194E00E9435
S12308C0810E0895DF93CF9300D00F92CDB7DEB789831B821A8283E0BE016F5F7F4F0E94E5
S12308E0830C0F900F900F90CF91DF910895813019F0823009F50FC090914A02992311F0B8
S123090081E00EC080934A0287EB94E060E070E00E94810E089580914B02882321F082E085
S12309200E946204089581E080934B028DE994E060E070E00E94810E0895DF93CF9300D061
S12309400F92CDB7DEB782E089830E947F039B838A8383E0BE016F5F7F4F0E94830C10928B
S12309604B020F900F900F90CF91DF910895DF93CF9300D00F92CDB7DEB781E0898380E0B1
S12309800E941D109B838A8383E0BE016F5F7F4F0E94830C10924A020F900F900F90CF913F
S12309A0DF91089560E00E944D0908950E94AC0B089581E00E941E0C089582E00E941E0C63
S12309C0089580E00E941E0C089584EC0E946207089584E80E946207089588EE0E94620700
S12309E0089580ED0E94620780E50E946207089588EC0E94620784E00E94620784E40E94D9
S1230A006207089583EA0E946207089588EA0E946207089582EF0E94620708958DEE0E9467
S1230A20620708958DEA0E94620782ED0E94620708958FE40E9462078FEC0E946207089572
S1230A4083EC0E9462078DEC0E946207089582EE0E946207089582E60E946207089582E568
S1230A600E946207089583E60E946207089581ED0E946207089581E50E946207089583EE24
S1230A800E946207089584EC0E944A07089584E80E944A07089588EE0E944A07089580ED3B
S1230AA00E94620780E50E944A07089580E50E94620780ED0E944A07089588EC0E94620746
S1230AC084E00E944A0784E40E944A07089584E00E944A0788EC0E944A0784E40E944A07AA
S1230AE0089583EA0E944A07089588EA0E944A07089582EF0E944A0708958DEE0E944A07E7
S1230B00089582ED0E9462078DEA0E944A0708958DEA0E94620782ED0E944A0708958FE4BF
S1230B200E9462078FEC0E944A0708958FEC0E9462078FE40E944A0708958DEC0E9462078E
S1230B4083EC0E944A07089583EC0E9462078DEC0E944A07089582EE0E944A07089582E6A7
S1230B600E944A07089582E50E944A07089583E60E944A07089581ED0E944A07089581E58D
S1230B800E944A07089583EE0E944A07089581E165E070E00E94B007089582E164E070E0DC
S1230BA00E94B00781E164E070E00E947C0781EE0E944A07089582E164E070E00E94B0076E
S1230BC081E163E070E00E947C0781EE0E944A07089582E164E070E00E94B00781E162E004
S1230BE070E00E947C0781EE0E944A07089508950895089508951F920F920FB60F9211241C
S1230C000F900FBE0F901F9018951F920F920FB60F9211248F939F93AF93BF938091FB0286
S1230C209091FC02A091FD02B091FE020196A11DB11D8093FB029093FC02A093FD02B09357
S1230C40FE02BF91AF919F918F910F900FBE0F901F9018951F920F920FB60F9211240F90BD
S1230C600FBE0F901F9018951F920F920FB60F9211240F900FBE0F901F901895CF93DF9380
S1230C800E947F03EC0187E163E070E00E94B00787E0C13DD8078CF083E80E944A0789E064
S1230CA0C53CD80754F088E80E944A078AE0C13FD8071CF08DE80E944A07DF91CF9108957F
S1230CC00E945B0908950E946A0A08950E94FF090895E4E6F0E080818061808310924E0202
S1230CE00895DF93CF9300D000D00F92CDB7DEB749835A836B837C838D8390914E02992352
S1230D0019F42FEF3FEF17C09091E40080939C0210929D028A818F638093E5008B81809394
S1230D20E6008C818093E70098788981982B9093E40020E030E0C9010F900F900F900F9088
S1230D400F90CF91DF910895DF93CF93CDB7DEB72A970FB6F894DEBF0FBECDBF8091E50098
S1230D608A838091E6008B838091E7008C838091E4008983DE011696FE01319685E001900E
S1230D800D928150E1F72E813F81488559856A8570E090E02A960FB6F894DEBF0FBECDBF37
S1230DA0CF91DF910895CF93DF93409164015091650180914E02882339F180E090E020C08B
S1230DC02491A22FAF71EA01CA0FD11D788122952695277030E0062E02C0220F331F0A948E
S1230DE0E2F7209527232883319620E0ED3FF20739F702968830910519F420E030E006C087
S1230E00682FE6EFF0E0DCCF2FEF3FEFC901DF91CF91089590914E02992319F42FEF3FEFDE
S1230E2004C08093A70220E030E0C90108951092A6020895409164015091650190914E02E2
S1230E40992319F42FEF3FEF23C0992787FD9095880F991FE6EFF0E02491A22FAF71BA01D8
S1230E606A0F711DDB016C9122952695277030E0082E02C0220F331F0A94E2F72095262385
S1230E802C93319670E0ED3FF70731F720E030E0C9010895E0916401F0916501982F9F711B
S1230EA0943178F4E90FF11D908182958695877021E030E002C0220F331F8A95E2F7922BB2
S1230EC090830895E0916401F0916501982F9F71943188F4E90FF11D2081382F32953695E9
S1230EE0377081E090E002C0880F991F3A95E2F78095822380830895CF92DF92EF92FF927F
S1230F000F931F93CF93DF93C82EDD249B012C0D3D1D2332310520F062E270E06C197D0945
S1230F20E82EFF24870103501F4FC0E0D0E0C60ED71E07C0F80184910E944A0721960F5F25
S1230F401F4FCE018E0D9F1D8C159D059CF3DF91CF911F910F91FF90EF90DF90CF9008958E
S1230F60CF92DF92EF92FF920F931F93CF93DF93C82EDD249B012C0D3D1D2332310520F0A0
S1230F8062E270E06C197D09E82EFF24870103501F4FC0E0D0E0C60ED71E07C0F80184913E
S1230FA00E94620721960F5F1F4FCE018E0D9F1D8C159D059CF3DF91CF911F910F91FF90E8
S1230FC0EF90DF90CF9008951F93DF93CF9300D000D00F92CDB7DEB749835A836B837C83AD
S1230FE08D83182F80914E02882339F08091640080618093640010924E02809164008F7E20
S1231000809364008A818F638093E5008B818093E6008C818093E700898188688093E40063
S123102080E062E270E00E94B00710939C0210929D0210939A0210929B0288E090E0909364
S1231040A5028093A4029093A3028093A2029093A1028093A00290939F0280939E028FE04C
S12310608093A7021092A80281E080934E0280E090E00F900F900F900F900F90CF91DF91E5
S12310801F9108950F931F93CF93DF93A0916401B09165012091AF0230E0062E02C0359568
S12310A027950A94E2F720FF03C0E4EFF0E08491660F771FE6EFF0E020E030E0082F10E078
S12310C0C801022E02C0959587950A94E2F780FF13C04491842F8F71ED01C80FD11D9881EE
S12310E042954695477050E0062E02C0440F551F0A94E2F7942B14C04491842F8F71ED0116
S1231100C80FD11D888142954695477050E0062E02C0440F551F0A94E2F7942F909598238D
S123112098832F5F3F4F31962730310549F6DF91CF911F910F910895AF92BF92CF92DF92C0
S1231140EF92FF920F931F93CF93DF93EC01162F042F9093AC028093AB024093AD026093E6
S1231160AE02CC24DD24EE24FF244FE0A42EB12CF5010C2C02C0EE0FFF1F0A94E2F7EC2326
S1231180FD230C2C02C0F695E7950A94E2F7EC51FF4F8491B7010E9442080894E11CF11CC9
S12311A084E0E816F10409F43AC084E090E0C80ED91ECE010C2C02C0969587950A94E2F7B5
S12311C00097B1F6B701112399F0002319F0E5EFF0E002C0E4EEF0E084910894E11CF11C69
S12311E00E9442080023B1F488EE0E944A0712C088EE0E9462070EC0002319F0E4EFF0E0DE
S123120002C0E4EEF0E08491E7012196B7010E9442087E0194E0E916F10474F309C01123C3
S123122021F088EE0E944A0703C088EE0E94620780E090E0DF91CF911F910F91FF90EF90EE
S1231240DF90CF90BF90AF90089590914E02992319F42FEF3FEF1FC09091A702282F2923BF
S12312602093A80286239095892B8093AF028091A4029091A5029093A3028093A2028091B8
S1231280AB029091AC026091AE024091AD020E949C0820E030E0C9010895462F20914E027A
S12312A0222319F42FEF3FEF04C060E00E949C089C01C90108958091AB029091AC026091C0
S12312C0AE024091AD020E949C0808950F931F93CF93DF93009164011091650167307105C5
S12312E008F050C0982F90529B3508F04BC0813608F08F7D8052813408F044C0E82FF0E041
S1231300EE0FFF1FEC59FF4FC591D491862F8695080F111D20E030E0A8E0B0E46F5F7F4F83
S123132061707070F801E20FF31FCE018F70482F9A2F9F7084E0D695C7958A95E1F754E089
S1231340B695A7955A95E1F76115710511F0906F05C04295407F9295907F9F6050818081ED
S1231360842B5923852B8083808150818923842B852380832B5F3F4F2431310599F620E081
S123138030E002C02FEF3FEFC901DF91CF911F910F910895EF92FF920F931F93CF93DF936A
S12313A07C01EB0100E010E006C080E2B8010E9466090F5F1F4F0C171D07BCF38E010D563A
S12313C01D4F11C0F7018081F8018083882311F480E203C00894E11CF11CBE010E9466098C
S12313E021960F5F1F4FC730D10564F380E090E0DF91CF911F910F91FF90EF900895809186
S123140092028823A1F180914C0290914D02FC01EF5AFD4F2081222359F410924D021092D0
S12314204C0286E090E0909367018093660113C020916601309167012115310539F0215065
S12314403040309367012093660105C0019690934D0280934C0280914C0290914D026091E4
S12314606601709167018F5A9D4F0E94CA090895CF93DF9390914E02992319F42FEF3FEF57
S123148025C0C0914F02D0915002FE01EF5AFD4F80832196D0935002C0934F02FE01EF5A1F
S12314A0FD4F108280914C0290914D028F5A9D4F60E070E00E94CA0910929202C830D1059D
S12314C01CF081E08093920220E030E0C901DF91CF9108958091AA026091A902882361F058
S12314E0772767FD7095FB01ED56FD4F80810E9466091092AA020895772767FD7095FB0156
S1231500ED56FD4F8081803211F080E201C08FE50E94660981E08093AA020895873018F060
S12315202FEF3FEF13C06093AA0291E09093A6028093A9020E946A0A8091A0029091A10262
S123154090939F0280939E0220E030E0C90108951F920F920FB60F9211242F933F934F9336
S12315605F936F937F938F939F93AF93BF93EF93FF93809192028823D1F080919A02909186
S12315809B02019790939B0280939A02009761F586E696E060E070E00E94810E80919C0264
S12315A090919D0290939B0280939A021DC08091A6028823C9F080919E0290919F020197F3
S12315C090939F0280939E02009771F483E696E060E070E00E94810E8091A0029091A1027D
S12315E090939F0280939E022091A8022223F1F08091A2029091A30201979093A302809301
S1231600A202009799F48091AF0282278093AF0280E696E060E070E00E94810E8091A4027B
S12316209091A5029093A3028093A202FF91EF91BF91AF919F918F917F916F915F914F918F
S12316403F912F910F900FBE0F901F901895EF92FF920F931F93CF93DF938C0180914E0267
S1231660882319F42FEF3FEF2AC010929202C8010E94A510E82EE7017E01F92EE701A701EE
S12316804F5F5F4F81E592E0B8010E94AE10F0925002E0924F0210924D0210924C0281E51B
S12316A092E060E070E00E94CA0910929202C830D1051CF081E08093920220E030E0C901BD
S12316C0DF91CF911F910F91FF90EF900895EF92FF920F931F93CF93DF93382F292FEB0156
S12316E080914E02882319F42FEF3FEF2DC0109292028B016134710514F000E410E041E5C9
S1231700E42E42E0F42EC701632F722FA8010E94BD10F801EE0DFF1D1082D0935002C093B2
S12317204F0210924D0210924C02C70160E070E00E94CA0910929202C830D1051CF081E035
S12317408093920220E030E0C901DF91CF911F910F91FF90EF9008950F931F93CF93DF9311
S12317608C0180914E02882319F42FEF3FEF24C081E592E0B8010E94C610E80109900020E4
S1231780E9F72197C01BD10BD0935002C0934F0210924D0210924C0281E592E060E070E054
S12317A00E94CA0910929202C830D1051CF081E08093920220E030E0C901DF91CF911F913E
S12317C00F910895EF92FF920F931F93DF93CF930F92CDB7DEB7462F20914E02222319F40C
S12317E02FEF3FEF21C0682F792F88ED613F780714F461EF78ED8B0197E26031790714F00E
S12318000FE017E2C80117FF04C088279927801B910B49830E94B703612F661F6627661F44
S123182049810E949C089C01C9010F90CF91DF911F910F91FF90EF9008950895813039F04C
S1231840813018F0823041F404C02F9808952F9A089585B1805885B908952F9A279A2F9A1A
S123186081E00E941E0C80E090E008951F920F920FB60F9211240F900FBE0F901F90189576
S12318808823A1F16115710589F14115510571F19091C1009F779093C1001092FA02109277
S12318A0B1027093B4026093B3028093B6025093B8024093B702809164008D7F8093640024
S12318C08AE18093C00088E18093C10086E08093C2008CE090E09093C5008093C4008091A2
S12318E0C10080688093C10081E0089580E00895E1ECF0E080818F778083E4E6F0E080812A
S12319008260808308952FEF3FEF02C0215030409091C00095FD04C021153105B9F75DC0E2
S12319202115310509F459C092E09093C60047E1FB019081923051F0973141F0933031F0B1
S12319402FEF3FEF26C02150304002C02FEF3FEF5091C00055FD04C021153105A1F73DC0AA
S123196021153105D1F14093C6002FEF3FEF02C0215030405091C00055FD04C0211531058A
S1231980B9F72BC02115310541F190640DC0215030405091C00055FD04C021153105B9F795
S12319A01CC021153105C9F09093C600815029F06F5F7F4FBDCF215030408091C00085FDF3
S12319C004C021153105B9F708C02115310529F083E08093C60081E0089580E00895DF932D
S12319E0CF930F92CDB7DEB71092FA021092B1021092B2021092B50203C08091C60089837F
S1231A008091C00087FDF9CF8091C10080688093C1000F90CF91DF9108951F920F920FB6F4
S1231A200F9211242F933F934F935F938F939F93AF93BF93EF93FF938091C00083FF07C04E
S1231A40809151038F5F809351031092B2028091C6008093B0028091B202882329F4809138
S1231A60B002823009F079C08091B5029091B602891708F072C09091B002923031F4109205
S1231A80B10281E08093B2020EC09091B002933009F040C090915203992341F4809151033E
S1231AA08F5F809351031092B50257C080910003E82FF0E0DF01AA0FBB1FAA0FBB1FAF5F4E
S1231AC0BC4F2091B7023091B80211963C932E93EE0FFF1FEE0FFF1FED5FFC4F2091B302A8
S1231AE03091B40231832083833119F41092000303C08F5F8093000391509093520380917D
S1231B00FF028F5F8093FF028091C1008F778093C10023C09091B002973121F481E080930B
S1231B20B1021BC09091B1024091B3025091B402282F30E0992329F49091B002240F351F88
S1231B4007C01092B1029091B002240F351F9F7BF90190838F5F8093B502FF91EF91BF91CC
S1231B60AF919F918F915F914F913F912F910F900FBE0F901F901895E4E6F0E090819B7F45
S1231B80908323982B9894B1976094B9289AE22FF0E0E470F070F595E795F595E795E0687C
S1231BA0EDBD1092BE021092BD021092BC021092BB021092C0021092BF02E9EBF2E01182F5
S1231BC010821086682B642B60642370622B6CBD80E090E00895E4E6F0E0808184608083BB
S1231BE00895CF93DF932091C102222319F02FEF3FEF22C02DB520682DBDEC0128812EBDAB
S1231C009A01FB0109C00DB407FEFDCFAEB5EC01B981BEBDA193019621503040A1F7FA018A
S1231C203197E60FF71F0DB407FEFDCF8EB580831092C10220E030E0C901DF91CF91089549
S1231C408091C1020895E0E7F0E080818E7F80831092FB021092FC021092FD021092FE02E5
S1231C601092B200A6EBB0E08C9188608C93808181608083E0EBF0E08081887F808380813B
S1231C808160808380E090E00895DF93CF930F92CDB7DEB78FB78983F89489818FBF60913A
S1231CA0FB027091FC028091FD029091FE020F90CF91DF9108951092000383E18093C20207
S1231CC01092FF0284E1809352031092510381E00895DF93CF930F92CDB7DEB78FB78983BC
S1231CE0F8941092000383E18093C2021092FF0284E18093520389818FBF0F90CF91DF913D
S1231D000895DF93CF930F92CDB7DEB720915203222311F480E027C0E0910003F0E0EE0FBC
S1231D20FF1FEE0FFF1FEF5FFC4F91838083738362838FB78983F89480910003833119F428
S1231D401092000303C08F5F809300038091FF028F5F8093FF028091520381508093520360
S1231D6089818FBF81E00F90CF91DF910895DF93CF930F92CDB7DEB78FB78983F89480911D
S1231D80FF02882319F489818FBF27C09091C202933119F41092C20203C09F5F9093C20283
S1231DA081508093FF02809152038F5F8093520389818FBFA091C202B0E0AA0FBB1FAA0F55
S1231DC0BB1FAF5FBC4FED91FC911197309729F012968D919C91139709950F90CF91DF91CF
S1231DE008951092C3021092C5021092C40281E00895CF92DF92EF92FF920F931F93DF9362
S1231E00CF930F92CDB7DEB7F901009709F46CC0423008F469C06230710508F465C02FB742
S1231E202983F894DC019C01260F371F50E0042F10E078010894E108F10806C02D933C93C2
S1231E40D901260F371F5F5FC52EDD24CE14DF04ACF311961C921E9271836083428343839C
S1231E6095838483069F9001079F300D169F300D112421503040280F391F37832683918714
S1231E8080878091C302882339F413861286F093C502E093C40221C0A091C402B091C502F5
S1231EA0382FAD010D911C9111970617170760F41A962C911A971B969C911B973150AD01AA
S1231EC029F0A22FB92FEECF2A2F9B2FDA011B96FC93EE931A97228793878F5F8093C30276
S1231EE089818FBF81E001C080E00F90CF91DF911F910F91FF90EF90DF90CF900895DF935A
S1231F00CF930F92CDB7DEB7AC01009709F43FC08091C3028823D9F18FB78983F894A09107
S1231F20C402B091C5022091C30290E012C06D917C9111976417750738F013968C911397D5
S1231F40882311F091E005C01A960D90BC91A02D2150222319F0992351F305C0992319F4E7
S1231F60E0E0F0E011C01896ED91FC9119978081918119969C938E93189713968C91139762
S1231F80815013968C93139789818FBF02C0E0E0F0E0CF010F90CF91DF910895DF93CF93A0
S1231FA00F92CDB7DEB70097B9F12091C302222399F12FB72983F894E091C402F091C50240
S1231FC03091C30220E010C046815781648175818617970728F04817590710F021E004C056
S1231FE00284F385E02D3150332319F0222361F302C0222379F033812281321768F4208548
S12320003185DC0111963C932E939187808783818F5F838389818FBF0F90CF91DF91089577
S1232020869A8E9884988C9881E08093C60280E090E008951092C60208951F93CF93DF93E0
S1232040182F8091C602882309F43BC08E9A84E060E040E427E00E9492010E94B60180E0D4
S12320600E94C901EC018FEFCF3FD807C1F30E94A7018E981123A9F483E391E020E030E0BC
S1232080FC01459154914C175D0740F02F5F3F4F02962C343105A1F72FEF3FEF2F50304070
S12320A012C08BEC91E020E030E0FC01459154914C175D0740F02F5F3F4F02962D38310554
S12320C0A1F72FEF3FEFC901DF91CF911F910895A1E21A2EAA1BBB1BFD010DC0AA1FBB1F5D
S12320E0EE1FFF1FA217B307E407F50720F0A21BB30BE40BF50B661F771F881F991F1A94B5
S123210069F760957095809590959B01AC01BD01CF01089597FB092E05260ED057FD04D0B9
S1232120D7DF0AD0001C38F450954095309521953F4F4F4F5F4F0895F6F7909580957095EB
S123214061957F4F8F4F9F4F0895FC0105900020E9F7809590958E0F9F1F0895FB01DC01B1
S12321604150504048F005900D920020C9F701C01D9241505040E0F70895FB01DC0102C04E
S123218001900D9241505040D8F70895FB01DC0101900D920020E1F70895F894FFCFC305BE
S12321A03F05BF053B05BB053705B7053305B3052F05AF052B05AB052705A4059D052005C7
S12321C096058F0519058805810512057D050E0579050A057505060571050205E905DB0592
S12321E0CD05C70567055D05F80456054F05F1044B05ED044705E9044305E504E104DD045E
S1092200D904EC0001000A
S9030000FC
